:020000040800F2
:10000000F016002025280008AD270008AF270008BB
:10001000B1270008B3270008B5270008000000003A
:10002000000000000000000000000000B7270008EA
:10003000B927000800000000BB270008BD27000802
:100040004128000845280008492800084D280008D4
:100050005128000855280008592800085D28000884
:100060006128000865280008692800086D28000834
:100070007128000875280008792800087D280008E4
:100080008128000885280008892800088D28000894
:10009000C127000891280008952800089928000821
:1000A0009D280008A1280008A5280008A928000804
:1000B000AD280008B1280008B5280008B9280008B4
:1000C000BD280008C1280008C5280008C928000864
:1000D000CD280008D1280008D5280008D928000814
:1000E000DD280008E1280008E528000830B50400F4
:1000F00085B049D004F50A75687820B900212970C7
:10010000204600F01FFB03206870206800F033FCDD
:1001100083B000F045F80EBC206800F025FC88BBD9
:100120002068002100F02CFC00200DE004EB4011C1
:1001300028310870C88101220023401C4A70CB700E
:100140000B614B618B61C0B261688842EED30020C5
:1001500000220CE004EB401101F5947100230870BB
:100160004A70401CCB700A614B618A61C0B2616801
:100170008842EFD383B000F013F80EBC206800F083
:1001800001FC18B102206870012007E084F8240007
:1001900001216970206800F0D2FE002005B030BD5A
:1001A000211D6846202200F001BF10B500F0EAF9D9
:1001B00001D1022010BD00F0DAF9206800F0BDFE88
:1001C000206800F0D3FBD9E12DE9F047054600F0A7
:1001D000CBF9000400F1A18000F0C6F940050CD570
:1001E00000F0B5F94FF6FF3000F0BAF9284600F0FC
:1001F000DCFA0021284600F0CAF900F0B5F9400405
:1002000005D500F0A4F94BF6FF7000F0A9F900F055
:10021000ABF9800405D500F09AF94DF6FF7000F0B7
:100220009FF900F0A1F9C00414D52968B1F8402065
:100230004FF6FB700240A1F840204FF6F770296896
:10024000B1F840200240A1F84020284600F0CDFA45
:1002500000F081F900F088F900051CD52868B0F895
:10026000401041F00801A0F840104FF2FF7000F07C
:100270006EF900F075F92868B0F8401041F00401FB
:10028000A0F8401000F070F9C00401D500F063F947
:10029000284600F09CFA00F067F9800508D500F0C8
:1002A00056F94FF6FF5000F05BF9284600F079FA56
:1002B00000F05AF9C00505D500F049F94FF6FF6086
:1002C00000F04EF9BDE8F087018809EA010141F428
:1002D0000041018005F124042868B0F8501022790B
:1002E00001EBC20100EB410000F204400088A1696B
:1002F000C0F3090020620844A0610021284600F0F4
:1003000049FA207848B1E06938B92178286841F085
:100310008001A0F84C1000212170286800F14401F0
:100320000A8813047FF558AF0A8812F00F0440F6CC
:100330008F7648F60F796AD1D206C5D502881305A3
:1003400005F5947414D5898900F0F8F8E288C3F3B0
:100350000903E36105F50C7100F013FE28680188BC
:100360000E4046F080060680284600F005FAD4E7E5
:100370001104D2D50288164046F08006068028680F
:10038000B0F8501000F0DAF8C3F30903002BE36172
:100390001CBF616900290AD0E28800F0F2FD6069A3
:1003A000E169014461612846002100F0EBF9296808
:1003B000B1F850004118206901F20C4148B9088891
:1003C00048F2FF32104008800B8843F400430B8052
:1003D00010E03F2805D24208C00748BF521C9002D7
:1003E00007E0420910F01F0F08BF521E900240F4B0
:1003F00000400880286801884BF68F72114081F414
:10040000405141F4004141F08001018085E730F81E
:1004100024A05FEA0A4205EB44185FD530F82410A7
:100420000E4046F0800620F8246008F5947628688F
:10043000317B79B9B0F85010337801EBC30100EB90
:10044000410200F074F835D0F28871693B4600F043
:1004500098FD2FE031780B4630F8232053040ED559
:10046000B0F8502002EBC10100EB410202F204425D
:100470001788C7F30907002F0FD0328909E0B0F8B9
:10048000503003EBC10300EB430200F050F804D0FE
:1004900072893B46716900F074FD2968307831F843
:1004A000202048F68F731A4042F4004242F0C00206
:1004B00021F82020F1697918F1617269D21972610D
:1004C000B3693BB131698F4204D33178284600F0DB
:1004D000A8F803E03178284600F054F95FEA0A6092
:1004E00021D5296831F8242009EA020242F40042A9
:1004F00008F1280021F824202A680178B2F8503049
:1005000003EBC10302EB430202F204421288436987
:10051000C2F30902C2611A4483694261002B284672
:1005200002D100F037F9F8E600F091F8F5E602F2B2
:100530000C421788C7F30907002F7047227801EB98
:10054000C20100EB410303F20C431B88704729688A
:10055000B1F8442070472968B1F844204EF6FF7086
:100560000240A1F844207047286800F0EABC01204E
:1005700084F828020121204600F0CFB9002084F839
:10058000280210BD044694F828020128704710B5CF
:10059000FFF7F8FF01D1022010BD00F006F884F843
:1005A0002410206800F0C3FCE8E7012084F828024A
:1005B000704738B5054601F0070005EB40100C0602
:1005C00047BF00F12804012000F59474002001F0D9
:1005D0000701607021702261E370607808B12178B2
:1005E000E181022B04BF0020207195F82802012828
:1005F00001D1022032BD012085F828022146286859
:1006000000F0D0F967E010B5044600F086F800F07D
:100610007DF801D1022010BD00F08EF800F0DEFA66
:10062000ACE710B501F0070400EB441404F5947432
:1006300001F007016261A3610022E261627014E0CF
:1006400001F0070100EB4110D0F84401704710B5EC
:1006500001F0070400EB441428346261A361002216
:10066000012301F00701E2616370217021460068F7
:1006700000F038FB002010BD38B505460C4669680F
:1006800004F00700814201D2012032BD210605D5C8
:1006900005EB401000F12801012204E005EB4410B5
:1006A00000F5947100224A700120887004F007045C
:1006B0000C7095F82802012801D1022032BD0120DA
:1006C00085F82802286800F0DCFB24B9286805F5C5
:1006D0000C7100F039FC002085F8280232BD10B5FD
:1006E000044601F00F0362689A4201D2012010BD56
:1006F00000F013F80023837000F008F801D1022005
:1007000010BD00F019F800F0D5FB37E701F0070144
:10071000017094F828120129704701F007000A06B9
:1007200004EB401003D5283001234370704700F5D7
:100730009470002242707047012284F828220146FA
:100740002068704700686F49884200D0704780B5C4
:100750006D48026842F4000202600022006800F462
:100760000000009000210098142000F045FCBDE836
:100770000240142000F05DBC00F50C71D0F8680256
:1007800000F0B2BC00EB4112D0F86802D2F83C2174
:1007900000F0D4BC00EB4112D0F86802D26B00F03C
:1007A0000EBDD0F8680200F09EBD10B50446A068EA
:1007B000022818BF00F02DFED4F86802012100F0D5
:1007C0007EFDD4F86802BDE8104000F04FBD10B5C2
:1007D0000446D4F8680200F075FDA06920B14B48CA
:1007E000016841F00601016010BDD0F8680200F018
:1007F00071BD10B5044646484249C0F86842C4F885
:10080000C0020160082202230021426083608161EE
:10081000C1610162FFF76AFC08B100F0FAFDD4F88B
:10082000C00218230022002100F0F4FDD4F8C00219
:1008300058230022802100F0EDFDD4F8C002C0232F
:100840000022812100F0E6FDD4F8C0024FF4887345
:100850000022012100F0DEFDD4F8C0024FF48073C5
:100860000022822100F0D6FD002010BD80B5D0F816
:10087000C002FFF79AFCBDE802404FE010B51C46ED
:100880001346D0F8C0022246FFF793FEBDE81040A1
:1008900044E080B5D0F8C002FFF7B5FEEBE780B5C5
:1008A000D0F8C002FFF7E8FEE5E780B5D0F8C00257
:1008B000FFF715FFDFE7D0F8C00201F07F0209065D
:1008C00000EB421002D590F82A00704790F82A01F8
:1008D000704780B5D0F8C002FFF759FECBE780B56E
:1008E000D0F8C002FFF7B3FEC5E780B5D0F8C0026C
:1008F000FFF797FEBFE7D0F8C002FFF7A1BE05489B
:1009000070470000005C00401C10024010ED00E049
:10091000140C0020800E0020704770470146002014
:1009200021B1022901D1012070470220704730B463
:10093000002513E050F8042BD30744BFA9F10103AD
:100940009A18091F042942F8045BFAD213468C074F
:1009500044BF15809B1CC90748BF1D7050F8041B7D
:100960000029E7D130BC70470EB418E0B0F8401051
:1009700041F43F41EAE2B0F8402044F2FF01E9E2ED
:10098000002070470EB4012120F8401F0022028091
:10099000828000210182028842F43F4202800020CE
:1009A00003B070472DE9F0470B4602461C7832F839
:1009B0002460DD7848F68F1100200E40032D0CD8FE
:1009C000DFE805F002080C0546F4007606E046F480
:1009D000C06603E046F4806600E0012048F280052E
:1009E0002E4322F8246048F68F7619780C4632F8A8
:1009F000247037403943294322F824104BF68F786E
:100A0000197B93F800A000294CF2800C48F6BF77C0
:100A100048F2C00966D1D9884FF6FE740C40597867
:100A20000029B2F850101CD0891801EB0A1101F509
:100A300080610C80197832F82140640606D532F8BE
:100A40002140264049EA060622F821601978DB7821
:100A5000012B32F8213000F084801F4087F02007FE
:100A600080E0891801EB0A1101F581610C80B2F870
:100A700050108C18197804EB011E19690EF20C4EF7
:100A800069B9BEF8004048F2FF310C40AEF80040B2
:100A9000BEF8007047F40047AEF8007011E03F293F
:100AA00005D24C08C90748BF641CA10207E04C09E5
:100AB00011F01F0F08BF641EA10241F40041AEF8FF
:100AC0000010197832F82140640406D532F821402C
:100AD00026404CEA060622F8216000F05FF883F415
:100AE000405356E032F82A10314041F4014141F0C0
:100AF000800122F82A10B2F850401978B3F808A003
:100B0000A41804EB011404F580644FF6FE7101EAA9
:100B10000A012180B2F850101C78891801EB0411E9
:100B200001F5816E59894FF6FE742140AEF8001030
:100B300059781C78002932F8241015D100F034F8C7
:100B400049EA060622F82160197832F8214008EABD
:100B5000040484F440542C4322F82140197832F8DC
:100B600021301F403D4315E000F01EF84CEA060618
:100B700022F82160DC781978012C32F821401ABF64
:100B8000274087F0200727402F4322F8217000F0EC
:100B900005F81D4322F82150BDE8F087197832F896
:100BA000213008EA03037047490406D532F82410BF
:100BB00031404CEA010122F82410197832F8214022
:100BC000640606D532F82140344049EA040422F88C
:100BD0002140197832F82140264070472DE9F04134
:100BE000024691F800C048780B7B4BF68F7E4CF2A2
:100BF000800448F2800848F6BF7548F2C00648F6FF
:100C00008F77ABB9002832F82C0008D0400636D5D3
:100C100032F82C0007403E4322F82C602FE04004BD
:100C200056D532F82C0007403C4322F82C404FE0C8
:100C3000002832F82C0029D1400405D532F82C00C8
:100C40003840044322F82C40087832F820305B0604
:100C500005D532F820303B40334322F82030087865
:100C600032F820301F403E4322F82060087832F8E6
:100C700020300EEA030348EA030322F82030087804
:100C800032F820100D4048EA050128E0400405D55F
:100C900032F82C003840204322F82C00087832F833
:100CA00020305B0605D532F820303B401E4322F849
:100CB0002060087832F820301F403C4322F8204062
:100CC000087832F820301D4048EA050522F8205007
:100CD000087832F820100EEA010148EA010122F8F2
:100CE0002010C0E02DE9F0410D4604466B782969DB
:100CF000A869012B48F280084AD1814239BF0E46CB
:100D0000801B06460020A861287B40B9EA8800F0D5
:100D1000ADF800F0AFF807F204473E802FE02878E6
:100D2000010134F820004206B4F8500006D5071936
:100D3000CF1907F20C473E806A8905E00719CF19E1
:100D400007F204473E802A8900F090F8687848F658
:100D50008F7140B9287834F82020114041F40041C7
:100D600041F0C00109E0012809D1287834F8202099
:100D7000114041F4404141F0800124F820102978CD
:100D800034F8212048F6BF70024082F0300266E05D
:100D9000814232BF401A014600202A7BA861002A06
:100DA0004FEA511C01F001004FEA510E22D0FBB96D
:100DB000B4F850302A781B1903EB021303F20443F2
:100DC00031B91E8848F2FF3216401E801A880CE0A6
:100DD0003F2904D2724600B1521C920207E06246DB
:100DE00011F01F0F08BF521E920242F400421A80F7
:100DF0006A782ABBB4F8502017192A7807EB021733
:100E000007F20C4749B9398848F2FF300140398070
:100E10003A8842F400423A8019E03F2905D208B1ED
:100E20000EF1010E4FEA8E2008E011F01F0F08BFEF
:100E3000ACF1010C4FEA8C2040F40040388006E011
:100E4000012A04D100F016F807F20C4739804BF65E
:100E50008F70297834F82120024082F4405248EA09
:100E6000020024F821000020BDE8F0816969B3B2D6
:100E7000204674E0B4F850000719287807EB0017F3
:100E8000704710B50A78497830F82240002948F2B6
:100E9000800305D048F6BF710C4084F0100404E0D4
:100EA0004BF68F710C4084F48054234320F8223099
:100EB000002010BD30B50A7B002A36D14A780C7864
:100EC000002A30F8242048F2800348F68F7516D0A7
:100ED000520608D530F82420154045F4004545F069
:100EE000C00520F82450CA78012A1ED00A7830F8AC
:100EF000224048F6BF710C4084F0200412E05204F6
:100F000008D530F82420154045F4404545F08005CB
:100F100020F824500A7830F822404BF68F710C40AC
:100F200084F44054234320F82230002030BD11B90E
:100F30008021A0F84C10002070470020704700204E
:100F40007047B0F84400704700207047A0F8401088
:100F5000002070470A40A0F840200020704710B5DC
:100F600000EB42005B1C00F580605B0807E00A783C
:100F70004C7842EA0422891C20F8042B5B1EF6D12F
:100F800010BD10B500EB420000F580605A0806E085
:100F900030F8044B0C70240A4C70891C521EF7D197
:100FA000DA0744BF0088087010BD00004AB1000095
:100FB00011F8013B521E00F8013B1CBF11F8013B28
:100FC000F8E770470901020002D4294881547047AC
:100FD000284B02F00F021A4402F8041C7047264BFB
:100FE00019684FF6FF020002114000F4E060084368
:100FF000224908431860704770B51F4B1C68C4F342
:1010000002230124C3F10705052D2EBF0F2504FA85
:1010100005F56D1E1E1D072E34BF0023DB1E294063
:10102000994004FA03F3BDE870405B1E1A40114377
:10103000C8E7010007D4012200F01F01104B8A40CD
:10104000400943F82020704710B5401EB0F1807F62
:1010500001D3012010BD0B4C60600F214FF0FF3019
:10106000FFF7B0FF0021A16007202060002010BD25
:1010700000E400E018ED00E00CED00E00000FA05EF
:1010800000E100E010E000E038B508B9022032BD10
:1010900000F52774A3690BB10025A56101B1616159
:1010A000012121700270FFF7A4FB002032BD02462F
:1010B000002011B1C2F8B41270470220704780B509
:1010C000FFF7D4FB002002BD10B5D0F8B4220224F3
:1010D0001AB11268904700B90024204610BD80B5AF
:1010E000D0F8B42253680AE138B5044604F52A75ED
:1010F000284600F096FB04F5257001210160428B23
:10110000017D426011F01F0003D002280BD005D3EF
:101110000EE02946204600F097F90DE029462046CA
:1011200000F0C2FA08E02946204600F0E7FA03E0A2
:1011300001F0800100F040F8002032BD38B50446CF
:1011400010460A0004F5257329D1196803291ED118
:1011500004F5B0714A680D68AA420BD2AD1A0D6051
:10116000954238BF2A46014692B2204600F0B5FBB0
:10117000002032BD196A086928B1187A032802D103
:10118000096920468847204600F0AFFBF0E70529B3
:10119000EED100201860002100F00EF8E8E71A6A8E
:1011A000906930B1187A032803D19269204690479C
:1011B000DEE7022032BD80212046FFF770BB38B544
:1011C00004460800134604F5257543D12868022813
:1011D00033D1226A616A914207D2521A22621946B9
:1011E00092B2204600F067FB11E0E269B2FBF1F039
:1011F00001FB102090B98A4210D3686882420DD258
:1012000000220021204600F056FB002068600023E9
:10121000002200212046FFF768FB14E0296AC86815
:1012200028B1287A032802D1C96820468847FFF7E9
:10123000C2FF204600F060FB05E0042818BF00282C
:1012400001D1FFF7B8FF287B012804BF00212973D3
:10125000002032BD2A6A506930B1287A032803D1B0
:10126000526920469047F3E7022032BD38B5044664
:10127000402300220021FFF701FB04F5AC7001219F
:1012800040220160C2604023002280212046FFF7F7
:10129000F5FA0120402104F52572A0616162107207
:1012A0000021116061600025506A156128B1126A41
:1012B00061685368C9B220469847002032BD017466
:1012C0000020704700F527700422017841700270F9
:1012D0000020704700F527700178042904BF417889
:1012E00001700020704780B500F527710A78032A45
:1012F00003D18969C96901B18847002002BD9847B7
:10130000002002BD38B586B000F0FEFA00F048F8C3
:101310002048214C016841F020010160002502684D
:1013200002F020020092009902681C4942F0040277
:101330000260006800F0040000900098216404F14D
:10134000400000F0F3FA02A800210022002380E808
:101350002E00CDE90012A3604FF0804121604FF4D0
:10136000965242F210716260E1602361A3612046EF
:1013700000F0ECFA4FF48050029002A9204600F0F1
:1013800004FB009501956946204600F0CBFB00F078
:10139000E9FBFEE718100240A012002000300240D6
:1013A00018B593B0282109A800F006FC142168465E
:1013B00000F002FC05A8002100220023002480E8A0
:1013C0001E00012109910B924FF480310A91119175
:1013D000012302224FF480110D931092129109A85B
:1013E00000F0EEFB022101910F204FF4806100908C
:1013F0000391029404940121684600F06BFD1021D2
:101400004FF480020591089205A800F025FE14B063
:1014100010BD704710B50C0605D501F0070100EBB3
:101420004110283003E000EB411101F594701AB926
:1014300000210173C38004E0038101211B0C0173AF
:101440004381002010BD0000F8B500F04EF904F50E
:10145000277608D0202818BF402825D1B269936884
:10146000204698471BE1697809291DD8DFE811F06B
:10147000F4000C01CD000601CD008F000A00CD0064
:10148000E200AB000022ADF800206888010A0129C3
:1014900000F07780022967D003292DD0062923D0B8
:1014A000072904BF207C002840F0AF80B1690A6B97
:1014B0006846904707214170BDF8001081B1E98866
:1014C000002910D0BDF80010EA88914288BF11466B
:1014D000ADF800100146BDF80020204600F0E3F909
:1014E000E8880028BED1D8E0207C002854D1B1691A
:1014F0004A6B68469047DFE7C0B205284CD8DFE862
:1015000000F02B231B130B0370698269002A7CD027
:10151000207C69469047CFE770694269002A74D001
:10152000207C69469047C7E770690269002A6CD041
:10153000207C69469047BFE77069C268002A64D082
:10154000207C69469047B7E770698268002A5CD0C2
:10155000207C69469047AFE770694268002A54D002
:10156000207C69469047A7E7207CB169002868463F
:1015700004D1896A8847022242709DE7C96A884778
:10158000F9E77269207C13686946984794E7A88850
:10159000002804BFE888002837D16F88802F34D214
:1015A0003078032807F07F072FD0B77039462046E0
:1015B000FFF78FF900F09FF8002F07BF012131706E
:1015C000022030706BE0374F688838703978022914
:1015D0001BDA3378022B08461AD0032B23D131B9FA
:1015E0000220307061602046FFF779FD55E06168A8
:1015F000884252D0C9B22046FFF771FD3978616048
:101600002046FFF761FD022847D100F007F946E0C8
:10161000002942D06060032030702046FFF754FD5F
:101620000228F2D039E000F0F9F839782046FFF7C7
:1016300056FD34E0E8880128E7D13178491E0129B8
:1016400004D9891EE1D10122211D13E00020A060F0
:10165000012204F108010DE03078401E0228D4D8A0
:10166000EA88022AD1D1B068012100B10321E160EA
:1016700004F10C01204600F016F910E068880128FA
:101680000DD10121B16008E03078401E0228BCD89D
:101690006A88012A03D10020B06000F02CF80020F5
:1016A000F2BD0000E812002038B500F01EF81CBFA3
:1016B0002028402815D104F527721078401E0228F2
:1016C0000FD82B79022B0CDA926993682046984741
:1016D0000146E888002808BF002904D100F00BF873
:1016E00001E000F09CF8002032BD0D460446287849
:1016F00010F060007047204600F0F7B8F8B50A789F
:101700000446087912F0600504F5277308D0202DEF
:1017100018BF402D65D19A6993682046984762E0CA
:1017200002F06002202A05D19A6993682046BDE83C
:10173000F44018474A787AB3012A11D0032A50D1CD
:101740001B78022B12D0032B4BD14A880ABB0028EE
:1017500018BF80281DD0C988D9B900F05BF818E0FF
:101760001A78022A02D0032A0AD03AE0002818BFC9
:10177000802836D000F04EF8802100F04CF832E09E
:101780004A8882BB10F07F0103D001462046FFF754
:101790008CF8FFF7B0FF26E0142600F07F021B78DC
:1017A0007243A718022B07F5AA7500F0800202D039
:1017B000032B0FD015E0002818BF802811D10AB1E3
:1017C00007F114050020286002222946204600F077
:1017D0006AF808E000F00F035E43A3192AB19A6982
:1017E0006AB900F01CF80020F2BDD3F85821002A95
:1017F000F7D0002818BF802804D10020E3E707F1C4
:101800001405F6E701462046FFF755F80028DAD020
:101810000120D8E701462046FFF741B82946204677
:1018200013E00A7802704B7843708A78CB7802EB29
:10183000032242804B790A7902EB032282808A7963
:10184000C97902EB0122C280704710B5044680219D
:10185000FFF725F82046BDE810400021FFF71FB82C
:1018600000280B4600D1704770B50146002400E007
:10187000641C11F8015B002DFAD12406E40DA41CB0
:1018800014801178197003225A70022207E010F8B0
:10189000011BD4B2521C1955D6B2521C9D55017869
:1018A0000029F4D170BD80B513460222C0F89422FD
:1018B000C361036201E080B513460A460021FFF7C9
:1018C0000EF8002002BD80B513460322C0F8942212
:1018D00000F5AE721360536001E080B513460A460E
:1018E0000021FFF702F8002002BD80B50421C0F8F6
:1018F000941200230022E1E780B50521C0F894127C
:1019000000230022ECE7000080B50748016841F0A1
:10191000100101600320FFF762FB002000F010FCC3
:1019200000F02EFC002002BD0020024010B5040093
:1019300001D1012010BD607920B90021217120461C
:1019400000F03BFC01206071002010BD38B50400A0
:1019500001D1012032BD00F014F818B900F00DF8E3
:1019600000F03CFCFFE702206870211D206800F0B9
:1019700069F801206870002032BD002129702046DE
:10198000704704F13C056878704738B500F04EF8B0
:1019900001D1022032BD0120207002226270DFF8E6
:1019A00004012A689368034093600868020018BF26
:1019B00010282DD0202818BF302829D0402823D027
:1019C000502816D0602818D0702803D0B0F5005FDA
:1019D00007D021E000F025F82868816841F0770100
:1019E00005E000F01EF82868816841F480418160BC
:1019F00012E000F012F850210BE0CA68496828682C
:101A000000F069F8602104E000F007F8402100E0F0
:101A10000146286800F071F80EE0CA684968286835
:101A20004AE0CB684A68896828686EE0054605F197
:101A30003C0420780128704701206070002121704B
:101A4000002032BD70B5184E0368184C184DB042D6
:101A500018BFB0F1804F03D0A84218BFA04209D1EF
:101A60004A6823F070031343B0421CBFB0F1804FAB
:101A7000A84201D0A04203D1CA6823F440731343A3
:101A80004A6923F0800313430360B0428B68C3624A
:101A90000A68826202D10969064A11600123436122
:101AA00070BD00008800FFFF002C014000080040CE
:101AB00000040040302C014010B5036A046A640839
:101AC0006400046223F00A03846924F0F00444EA09
:101AD0000214846123E010B5036A23F0100303624B
:101AE0008369046A23F4704343EA023324F0A004B8
:101AF000836144EA0114046210BD826822F070021E
:101B0000114341F007018160704710B5846824F4E7
:101B10007F442143114341EA0321816010BD1943F1
:101B2000016210BD70B500F13C031A78012A01D1A1
:101B3000022070BD01221A7002245C70046865687E
:101B4000A6684A68096825F070050D43656026F0AF
:101B500080060068164386600121597000201870C5
:101B600070BD000010B5104C104900222046FFF750
:101B70008BFA08B1FFF74DFC0D492046FFF797FAA5
:101B800008B1FFF746FC0B49204600F065FC08B1A0
:101B9000FFF73FFC2046FFF792FA18B1BDE810406E
:101BA000FFF737BC10BD00BF5009002030010020F6
:101BB0001C00002020010020002200F08DBC00004D
:101BC0002DE9F843040016D02078DFF84C64C107F3
:101BD00013D5706800F00C00042807D0706800F07E
:101BE0000C00082841D17068C1033ED530688103DC
:101BF00003D56068002800F064812078DFF828743D
:101C0000810719D5706810F00C0F07D0706800F0CC
:101C10000C00082861D17068C1035ED43068810768
:101C200003D52069012840F04C813168606921F0BA
:101C3000F80141EAC00131602178080740F1818054
:101C4000A069DFF8E813002800F0A68001220A60EE
:101C500000F05CFC0546706A810763D400F056FC16
:101C6000401B0228F7D903202EE16068B0F5803FC1
:101C700004D1306840F48030306014E008B9306836
:101C80000AE0B0F5A02F306806D140F48020306023
:101C9000316841F4803105E020F4803030603168F3
:101CA00021F480213160606858B100F02FFC0546B6
:101CB00030688103A1D400F029FC401B6528F7D3CC
:101CC000D1E700F023FC05463068810395D500F08C
:101CD0001DFC401B6528F7D3C5E72069A8B1012189
:101CE000396000F013FC05463068810705D400F028
:101CF0000DFC401B0228F7D9B5E73068616920F078
:101D0000F80040EAC100306096E7386000F0FEFB62
:101D10000546316888078FD500F0F8FB401B022884
:101D2000F7D9A0E7DFF8F4020168C9084FF47A7226
:101D3000B1FBF2F2009200BF0098411E0028009112
:101D4000F9D1207841076ED5F0690025C10009D48A
:101D5000F06940F08050F0610125F06900F080509A
:101D600000900098DFF8C882D8F80000C10520D4A0
:101D7000D8F8000040F48070C8F8000000F0C6FBFE
:101D80008146D8F80000C10513D400F0BFFBA0EBDA
:101D900009006528F5D366E7086000F0B7FB054643
:101DA000706A8107CDD500F0B1FB401B0228F7D93E
:101DB00059E7E068012808D008B9306A09E0052829
:101DC000306A06D140F004003062306A40F0010011
:101DD00005E0400840003062306A20F004003062C4
:101DE00041F28938E06860B100F090FB8146306ACA
:101DF000810713D400F08AFBA0EB09004045F6D31D
:101E000031E700F083FB8146306A810706D500F098
:101E10007DFBA0EB09004045F6D324E71DB1F06936
:101E200020F08050F061E06900284CD0716801F02A
:101E30000C01082938D002282AD100F047F80546BD
:101E40003068810105D500F061FB401B0228F7D9FD
:101E500009E7206AB0F5803F05D17168A06821F4D8
:101E60000031014371607268206A616A22F4741261
:101E700002430A437260012000F029F804463068EA
:101E8000810120D400F042FB001B0228F7D9EAE6CA
:101E900000F01CF804463068810114D500F036FBD0
:101EA000001B0228F7D9DEE601280AD07068226AF2
:101EB00000F48031914202BF00F47010616A8842E0
:101EC00001D0012000E00020BDE8F2830020386648
:101ED00000F01CBB2DE9F041040088464ED0554E61
:101EE00000F077F802D200F06FF847D120684A4D31
:101EF000810712D5400703D5696841F4E061696044
:101F00002078010703D5686840F46050686069680C
:101F1000A06821F0F001014369602178C80725D548
:101F20006068012802D129688A0303E00228296831
:101F300002D18A0102D421E08A071FD56968890885
:101F400040EA8100686000F0E1FA0746686861686D
:101F500000F00C00B0EB810F08D000F0D7FAC01BE6
:101F600041F289318842F1D303202BE0306800F040
:101F70000700804504D200F027F801D0012021E0BD
:101F80002078410705D56A68E06822F4E0620243E0
:101F90006A602178080706D56968206921F46051D4
:101FA00041EAC001696000F019F86A6822491B4BD8
:101FB000C2F30312895CC84018601A48006800F038
:101FC000BFF80020BDE8F0813168C90848EAC101C6
:101FD0003160306800F007004045704717491048ED
:101FE0000A6802F00C03082B00D0704710B500BF40
:101FF00014A4C2F38343D203E35C08D509685843B1
:1020000014A3C1F340415A5CB0FBF2F010BD184676
:102010000B49484310BD0000001002400C00002096
:1020200000127A0008000020000042428004424270
:1020300000700040002002405427000804100240B5
:1020400000093D0002030405060708090A0B0C0DF0
:102050000E0F1010010200002DE9FC410646354D1F
:102060003078C10750D5A8690024C10009D4A869F7
:1020700040F08050A8610124A86900F080500090D1
:1020800000982D4F3868C10511D4386840F480702D
:10209000386000F03BFA80463868C10507D400F08C
:1020A00035FAA0EB08006528F6D303203FE0E86985
:1020B00010F440701EBF716801F44071884218D05E
:1020C0001E49E86901220A60002320F440700B6079
:1020D000E861C0070DD500F019FA0746E8698107E5
:1020E00007D400F013FAC01B41F289318842F5D3BE
:1020F000DBE7EA69706822F440720243EA611CB1CE
:10210000A86920F08050A8613078810705D52A6839
:10211000B06822F4404202432A603178C80605D5EF
:102120002968F06821F48001014329600020BDE89E
:10213000F68100000410024000700040400442425A
:1021400038B50D4D0D4B2A7804464FF47A71186856
:10215000B1FBF2F2B0FBF2F0FEF776FF50B9102CB3
:1021600008D2002221464FF0FF30FEF745FFAC6059
:10217000002032BD012032BD000000200C000020F4
:102180001F4881B0016841F001010160026802F05E
:10219000010200920099426842F080524260406819
:1021A00000F08050009000981648016821F0E0612E
:1021B00041F00071016001B0704781B000681249C0
:1021C000884209D11148026842F04002026000686A
:1021D00000F040000090009801B0704781B00068A6
:1021E000B0F1804F09D10A48016841F00101016056
:1021F000006800F001000090009801B070470000F6
:102200001810024004000140003002401410024047
:102210001C10024070B505460026287C40B94FF4DA
:10222000007300F03AF80122EA624FF4007305E00F
:10223000402300F032F80120E8624023022201210D
:102240002846FEF71BFB0120C5F86C01082303227A
:1022500082212846FEF712FB012028644FF4077004
:10226000FEF74DFB040005F52E7008BF0126046043
:1022700011D040680168884704F501700661466125
:102280000268287C00280CBF4FF400734023012112
:102290002846FEF72AFB304670BD022281212846DF
:1022A000FEF7ECBA10B504468121FEF7F2FA0022DF
:1022B000E26201212046FEF7ECFA0020C4F86C012E
:1022C00082212046FEF7E5FA0021216404F52E74F0
:1022D000206838B16068416888472068FEF71CFBB9
:1022E00000202060002010BDF8B5044604F52773D7
:1022F0000D46DE6900218DF80010ADF802100027B0
:10230000297811F0600022D020283AD1EA88C2B1A1
:10231000687809060AD51B6AD3F808C03146E04739
:10232000EA8831462046FFF7BEFA2FE006F5007135
:102330000870E88848703146EA882046FFF7C3FAFB
:1023400024E01B6A68789C682946A0471EE06878EC
:1023500020B10A2809D00B2810D012E019780329DF
:102360000FD102220DF1020104E01878032808D1F0
:10237000012269462046FFF796FA07E018780328FD
:1023800004D029462046FFF760FA02273846F2BDFE
:10239000F8B5044604F52E7002688368CAB11420AB
:1023A00048432618F06978B103EB41139B6BB0FBEF
:1023B000F3F503FB150038B90027F761002300226D
:1023C0002046FEF78CFA02E00023C2F81432002007
:1023D000F2BD0220F2BD70B500F52E74256805F53A
:1023E0000176FEF788FAB060206838B1626830681C
:1023F000D36805F503719847002070BD022070BDB9
:1024000010B500F52E7043680168002B1EBF01F562
:1024100000742078FF2804D062789B689847FF20DA
:102420002070002010BD43210180074870474321E0
:1024300001800648704743210180054870470A2102
:1024400001800448704700009800002054000020DC
:10245000DC000020100000200246022011B1C2F86A
:10246000BC1200207047D0F8B80200F5027001607D
:10247000826000207047D0F8B802C0F80412002033
:10248000704780B5D0F8B81289B101F50272D168F1
:1024900059B90123D360916801638121936812685F
:1024A0009BB2FEF71CFA002002BD012002BD0220F3
:1024B00002BD80B5D0F8B81261B1D1F80422017C18
:1024C00000290CBF4FF4007340230121FEF70DFAE1
:1024D000002002BD022002BD00B500BF13009646D9
:1024E0009446103928BFA0E80C50FAD85FEA417C26
:1024F00028BF0CC048BF40F8042BC90728BF20F8EC
:10250000022B48BF00F8012B00BD000001484068C5
:10251000704700BF00000020122008801A48704752
:1025200004200880194870472DE9104000F028F871
:1025300027A004E02DE9104000F022F82AA021464F
:10254000FFF78EF9204610BD38B51A2008801049D3
:102550004C68086889680F4D081809D00822A91C22
:1025600000F022F8042205F11201204600F01CF8C8
:10257000284632BD2DE9104000F002F81FA0DEE72A
:102580000A46054C704700004C0100206001002005
:10259000E8F7FF1F64010020A01000202DE9104083
:1025A000FFF7EEFF18A0CAE730B500230CE0040FD8
:1025B0000A2C2CBF3734303401F8134001EB4305AB
:1025C000002400016C705B1C9342F0DB30BD000006
:1025D00053544D3332205669727475616C20436FC9
:1025E0006D506F727400000053544D6963726F65D3
:1025F0006C656374726F6E696373000043444320BB
:10260000436F6E666967000043444320496E7465FA
:10261000726661636500000038B51B4C1B4D0022DB
:1026200005F57A712046FFF71EFF29462046FFF781
:1026300022FF002032BD002070470020704770B597
:1026400004460D46104E21463046FFF714FF304633
:10265000FFF72FFF296889B2204600F002F800201A
:1026600070BD10B5084CD4F8B8320A46D3F814122D
:1026700009B1012010BD01462046FFF7F4FE2046B7
:10268000BDE81040FFF7FDBE50090020800100208A
:10269000F0B40246106895681318506803EB5004B4
:1026A000C0071CD54D441AE013F8017B05F8017BE7
:1026B000491EF9D198B113F8011BC6F38106032E08
:1026C00008BF13F8016B01EB06214942801C294425
:1026D00005D011F8016B05F8016B401EF9D1A3423A
:1026E0000ED013F8016B16F0030104BF13F8011BA1
:1026F000C91C30090F28DBD113F8010B0F30D7E7C5
:10270000F0BC02F10C00704710B50E4A0E4910687B
:1027100040F00100106053680C480B40536014688F
:1027200004401460116821F4802111604FF41F01EE
:10273000506820F4FE00506091604FF00060044A41
:10274000106010BD001002400000FFF8FFFFF6FE11
:1027500008ED00E00000000000000000010203049A
:102760000607080910B5074979441831064C7C441E
:10277000163404E00A68081D114488470146A14246
:10278000F8D110BD0800000024000000A3E1FFFF05
:102790006C1100008001002000000000F5FEFFFF2A
:1027A00048010000A4010000000000207047FEE77F
:1027B000FEE7FEE7FEE770477047704700F006B897
:1027C0000148FDF701BD0000140C002002494A68D1
:1027D000087882184A6070470000002000F00DF869
:1027E000002801D0FFF7BEFFAFF300800020AFF359
:1027F0000080FEF787FD00F002F80120704700F02E
:1028000001B800000746384600F002F8FBE7000078
:1028100080B5AFF30080024A11001820ABBEFBE781
:1028200026000200014880470148004709270008A8
:1028300035280008AFF30080AFF30080FFF7CEFF2C
:10284000FFF7FEBFFFF7FEBFFFF7FEBFFFF7FEBFBC
:10285000FFF7FEBFFFF7FEBFFFF7FEBFFFF7FEBFAC
:10286000FFF7FEBFFFF7FEBFFFF7FEBFFFF7FEBF9C
:10287000FFF7FEBFFFF7FEBFFFF7FEBFFFF7FEBF8C
:10288000FFF7FEBFFFF7FEBFFFF7FEBFFFF7FEBF7C
:10289000FFF7FEBFFFF7FEBFFFF7FEBFFFF7FEBF6C
:1028A000FFF7FEBFFFF7FEBFFFF7FEBFFFF7FEBF5C
:1028B000FFF7FEBFFFF7FEBFFFF7FEBFFFF7FEBF4C
:1028C000FFF7FEBFFFF7FEBFFFF7FEBFFFF7FEBF3C
:1028D000FFF7FEBFFFF7FEBFFFF7FEBFFFF7FEBF2C
:1028E000FFF7FEBFFFF7FEBF4301000122100810F3
:1028F0000524F4000A0600020B22401810031522DA
:102900000008A50412E904211F900B01240008917E
:10291000230008D72300080001122F1812270412E1
:102920003704123F04100909024300020100C032BB
:1029300009043512020B101E0524001001052401A4
:102940000001042402020524060001070582030891
:10295000001009040100020A4E1002070501027B63
:10296000200107058107F228004422400722810741
:10297000200100090744F22C0444131926D811043D
:10298000123B04123F0410031925000821041235DC
:1029900004122904124904127504129D04121243F0
:1029A000100602020040830440577917020345F0E5
:0A29B0000508040309041A030001DE
:040000050800283592
:00000001FF
