:020000040800F2
:1000000050190020D14400083D4300083F43000838
:100010004143000843430008454300080000000036
:10002000000000000000000000000000474300083E
:1000300049430008000000004B4300084D430008FE
:10004000F9440008FD440008014500080545000882
:10005000094500080D450008114500081545000830
:10006000194500081D4500082145000825450008E0
:10007000294500082D450008314500083545000890
:10008000394500083D450008414500084545000840
:1000900055430008494500084D45000851450008F2
:1000A00055450008594500085D45000861450008B0
:1000B0005F43000865450008694500086D45000874
:1000C0007145000875450008794500087D45000820
:1000D0008145000885450008894500088D450008D0
:1000E0009145000895450008994500080EB40100A7
:1000F000002003B0704701004FF43F42B1F84000C8
:100100001043A1F840000020704701004FF43F4227
:10011000B1F840009043A1F8400000207047020071
:10012000002070470EB418B504000120A4F8400068
:100130000020A4F840000020A4F844000020A4F807
:1001400050002000FFF7D7FF002012BC5DF810FB25
:10015000F0B503000A000020117833F8214048F67A
:100160008F110C40D178002905D0022906D009D37F
:10017000032904D009E054F4007408E007E054F4C3
:10018000C06404E054F4806401E00121080048F2F6
:10019000800555EA0401167823F8261048F68F7674
:1001A000117833F82170374011780F432F431178BD
:1001B00023F82170117B002940F0AC805178002990
:1001C0003ED01F00B3F85010CF19117817EB011172
:1001D00011F58061B2F806C01FFA8CFC5FEA5C0C76
:1001E0005FEA4C0CA1F800C0117833F821105FEAE7
:1001F000416C0AD5177833F827703E4046F4004624
:1002000056F0C006177823F82760D17801290CD062
:10021000117833F8216048F6BF710E4096F0200641
:100220003543117823F8215041E1117833F82160EA
:1002300048F6BF710E403543117823F8215036E15E
:100240009C46B3F8501011EB0C0C1178C9001CEB54
:10025000410111F58161D788BFB27F087F000F800F
:100260001F00B3F85010CF191178C90017EB410ED9
:100270000EF20C4E116900290ED1BEF800C048F2F2
:10028000FF3111EA0C0CAEF800C0BEF8001051F4BA
:100290000041AEF800101DE011693F290CD2116930
:1002A000490892F810C05FEACC7C00D5491C5FEA8F
:1002B000812CAEF800C00DE01169490992F810C018
:1002C0001CF01F0F00D1491E5FEA812C5CF4004C2A
:1002D000AEF800C0117833F821105FEA414C0AD51E
:1002E000177833F827703E4046F4404656F08006B3
:1002F000177823F82760117833F821604BF68F7157
:100300000E4096F4805696F400563543117823F843
:100310002150CCE0117833F82110314041F40141F3
:1003200051F08001177823F827101F00B3F8501000
:10033000CF19117817EB011111F58061B2F808C0DF
:100340001FFA8CFC5FEA5C0C5FEA4C0CA1F800C061
:100350009C46B3F8501011EB0C0C1178C9001CEB43
:10036000410111F58161B2F80AE01FFA8EFE5FEAE1
:100370005E0E5FEA4E0EA1F800E05178002945D1EB
:10038000117833F821104F040BD5177833F8277004
:10039000374047F4404757F0800792F800C023F8F1
:1003A0002C70117833F821104F060BD5177833F8DD
:1003B0002770374047F4004757F0C00792F800C055
:1003C00023F82C70117833F821100E4046F40046C3
:1003D00056F0C006117823F82160117833F82160B7
:1003E0004BF68F710E4096F4805696F400562E43CD
:1003F000117823F82160117833F8216048F6BF7135
:100400000E403543117823F8215050E0117833F82D
:1004100021104F040BD5177833F82770374047F475
:10042000404757F0800792F800C023F82C701178ED
:1004300033F821104F060BD5177833F82770374063
:1004400047F4004757F0C00792F800C023F82C701B
:10045000117833F821100E4046F4404656F08006DD
:10046000117823F82160D17801290CD0117833F864
:10047000216048F6BF710E4096F020062E43117899
:1004800023F8216009E0117833F8216048F6BF7144
:100490000E402E43117823F82160117833F8216043
:1004A0004BF68F710E403543117823F82150C0B2BE
:1004B000F0BD10B40200087B002842D14878002823
:1004C0001FD0087832F8203058060CD5087832F85A
:1004D000204048F68F70044044F4004454F0C004B7
:1004E000087822F82040087832F8203048F6BF70AB
:1004F000034043F4004353F08003087822F820308F
:10050000B1E0087832F8203058040CD5087832F879
:10051000204048F68F70044044F4404454F0800476
:10052000087822F82040087832F820304BF68F7097
:10053000034043F4004353F08003087822F820304E
:1005400091E04878002847D1087832F820305804E4
:100550000CD5087832F8204048F68F70044044F4F7
:10056000404454F08004087822F82040087832F89B
:10057000203058060CD5087832F8204048F68F70A5
:10058000044044F4004454F0C004087822F82040A9
:10059000087832F8203048F68F70034043F4004367
:1005A00053F0C003087822F82030087832F8204051
:1005B0004BF68F70044048F280031C43087822F801
:1005C0002040087832F8204048F6BF7004402343AA
:1005D000087822F8203046E0087832F820305804B5
:1005E0000CD5087832F8204048F68F70044044F467
:1005F000404454F08004087822F82040087832F80B
:10060000203058060CD5087832F8204048F68F7014
:10061000044044F4004454F0C004087822F8204018
:10062000087832F8203048F68F70034043F4404396
:1006300053F08003087822F82030087832F8204000
:1006400048F6BF70044048F280031C43087822F843
:100650002040087832F820404BF68F700440234346
:10066000087822F82030002010BC7047F8B505004B
:100670000E007078012840F0E7803069B169884247
:1006800004D23469B069001BB06102E0B469002093
:10069000B061307B002812D123009BB2F2887169CF
:1006A000280000F02DFA2900B5F8500041183078E4
:1006B000C00011EB400000F204400480B2E030784A
:1006C00035F82000400646D529007078002832D140
:1006D0002A00B5F8500082183078C00012EB4003B1
:1006E00003F20C43002C0CD1B3F800C048F2FF30E9
:1006F00010EA0C0CA3F800C0188850F400401880D1
:1007000018E03F2C0AD2200040085FEAC47C00D5E4
:10071000401C5FEA802CA3F800C00BE020004009D9
:1007200014F01F0F00D1401E5FEA802C5CF4004CD7
:10073000A3F800C00CE07078012809D1B5F850008A
:1007400041183078C00011EB400000F20C400480EA
:10075000708907003DE0707800282AD12900B5F89B
:10076000500041183078C00011EB400202F2044200
:10077000002C09D1138848F2FF3003401380108801
:1007800050F40040108013E03F2C07D220004008B6
:10079000E30700D5401C8302138009E020004009D4
:1007A00014F01F0F00D1401E830253F40043138046
:1007B0000DE0707801280AD12900B5F850004118E1
:1007C0003078C00011EB400000F204400480308912
:1007D000070023009BB23A0092B27169280000F032
:1007E0008FF9707800280DD1307835F8201048F650
:1007F0008F70014041F4004151F0C001307825F87C
:1008000020100FE0707801280CD1307835F82010D6
:1008100048F68F70014041F4404151F0800130783A
:1008200025F82010307835F8201048F6BF700140C8
:1008300091F0100191F0200141F4004151F080014C
:10084000307825F82010CAE03069B169884204D2B6
:100850003469B069001BB06102E0B4690020B06186
:10086000307B00282AD12900B5F850004118307893
:10087000C00011EB400202F20C42002C09D1138897
:1008800048F2FF3003401380108850F4004010807D
:1008900013E03F2C07D220004008E30700D5401C9E
:1008A0008302138009E02000400914F01F0F00D1DB
:1008B000401E830253F4004313807FE070780028C9
:1008C0002AD12900B5F8500041183078C00011EB4A
:1008D000400202F20442002C09D1138848F2FF3092
:1008E00003401380108850F40040108013E03F2C28
:1008F00007D220004008E30700D5401C8302138084
:1009000009E02000400914F01F0F00D1401E8302AF
:1009100053F4004313800DE0707801280AD12900B8
:10092000B5F8500041183078C00011EB400000F2DB
:100930000440048029007078002832D12A00B5F8DC
:10094000500082183078C00012EB400303F20C43D1
:10095000002C0CD1B3F800C048F2FF3010EA0C0CA8
:10096000A3F800C0188850F40040188018E03F2C0D
:100970000AD2200040085FEAC47C00D5401C5FEA30
:10098000802CA3F800C00BE02000400914F01F0FDA
:1009900000D1401E5FEA802C5CF4004CA3F800C03C
:1009A0000CE07078012809D1B5F850004118307872
:1009B000C00011EB400000F20C400480307835F8A4
:1009C00020104BF68F70014091F4805191F400514A
:1009D00041F4004151F08001307825F820100020CA
:1009E000F2BD0200487800280FD0087832F8203095
:1009F00048F6BF70034093F0100343F4004353F0F4
:100A00008003087822F820300EE0087832F8203091
:100A10004BF68F70034093F4805343F4004353F03C
:100A20008003087822F820300020704710B40200BC
:100A3000087B00284AD14878002824D0087832F86A
:100A4000203058060CD5087832F8204048F68F70D0
:100A5000044044F4004454F0C004087822F82040D4
:100A6000C878012832D0087832F8203048F6BF70B4
:100A7000034093F0200343F4004353F080030878CD
:100A800022F8203022E0087832F8203058040CD5C3
:100A9000087832F8204048F68F70044044F440440F
:100AA00054F08004087822F82040087832F820308A
:100AB0004BF68F70034093F4805393F4005343F448
:100AC000004353F08003087822F82030002010BC47
:100AD000704702000800C0B2002802D18020A2F8AE
:100AE0004C000020704701000020704701000020EA
:100AF00070470100B1F844007047020000207047C1
:100B00002DE9F04304001F00BFB27F1C7F08A446FC
:100B10008846100080B21CEB400E1EF5806E380037
:100B2000002817D098F800904D4618F1010898F861
:100B300000905FEA09291FFA89F959EA05094E462A
:100B4000AEF800601EF1020E1EF1020E18F101084F
:100B5000401EE5E7BDE8F0832DE9F04104001E00EA
:100B6000B6B2760827008C46100080B217EB400E14
:100B70001EF5806E3000002813D0BEF80080454678
:100B80001EF1020E8CF800501CF1010CA8465FEA21
:100B900018288CF800801CF1010C1EF1020E401E7A
:100BA000E9E75FEAC37804D5BEF8008045468CF8D3
:100BB0000050BDE8F08130B585B00400002C01D1B3
:100BC0000120A5E094F82902002805D1002084F82E
:100BD0002802200000F0C8FC032084F829022068C5
:100BE000FFF793FA211D83B06846202200F07CFEB7
:100BF0000EBC2068FFF77AFA002804D0022084F89F
:100C00002902012084E000212068FFF788FA0020F3
:100C10000100C9B2626891422ED201210200D2B213
:100C20005201224482F829100100C9B2490121442D
:100C300081F828000100C9B20200D2B25201224458
:100C4000D18600210200D2B25201224482F82B1038
:100C500000210200D2B2520122449163002102001D
:100C6000D2B252012244D16300210200D2B2520119
:100C700022441164401CCBE700252800C0B2616803
:100C800088422AD200202900C9B24901214481F8B2
:100C900029012800C0B24001204480F828510020DA
:100CA0002900C9B24901214481F82B010020290003
:100CB000C9B249012144C1F8380100202900C9B254
:100CC00049012144C1F83C0100202900C9B2490171
:100CD0002144C1F840016D1CCFE7211D83B0684657
:100CE000202200F001FE0EBC2068FFF71BFA00284E
:100CF00004D0022084F82902012009E0002084F8B1
:100D00002400012084F829022068FFF7EFFE00206C
:100D100005B030BD10B5040094F82802012801D1B7
:100D2000022010E0012084F828020121200000F0B8
:100D3000B2FD2068FFF7D7FE2068FFF7DCF900203E
:100D400084F82802002010BD10B504002068FFF7C9
:100D5000D0FE000402D5200000F017FA2068FFF74B
:100D6000C8FE40050FD52068B0F844104FF6FF309C
:100D700001402068A0F84410200000F03FFC002152
:100D8000200000F08EF82068FFF7B3FE400408D57D
:100D90002068B0F844104BF6FF7001402068A0F8BE
:100DA00044102068FFF7A5FE800408D52068B0F83D
:100DB00044104DF6FF7001402068A0F844102068F0
:100DC000FFF797FEC0041DD52068B0F840104FF61D
:100DD000FB7001402068A0F840102068B0F8401077
:100DE0004FF6F77001402068A0F84010200000F096
:100DF00027FC2068B0F844104EF6FF7001402068D0
:100E0000A0F844102068FFF774FE000529D520687B
:100E1000B0F8400050F008002168A1F840002068B8
:100E2000B0F844104FF2FF7001402068A0F8441061
:100E30002068B0F8400050F004002168A1F840009C
:100E40002068FFF756FEC00408D52068B0F84410AB
:100E50004EF6FF7001402068A0F84410200000F01A
:100E6000E0FB2068FFF745FE80050BD52068B0F851
:100E700044104FF6FF5001402068A0F844102000B5
:100E800000F0B5FB2068FFF734FEC00508D52068E8
:100E9000B0F844104FF6FF6001402068A0F84410FD
:100EA00010BD38B504000D0094F82802012801D1C6
:100EB00002200DE0012084F8280284F82450290043
:100EC000C9B22068FFF705FE002084F82802002040
:100ED00032BD2DE9F8430400884615001E000027A6
:100EE0004046C0B200060BD54046C0B210F0070025
:100EF0004001204410F12809012089F801000AE08E
:100F00004046C0B210F007004001204410F594792B
:100F1000002089F8010018F0070089F80000280077
:100F200080B2C9F8100089F8036099F80100002820
:100F300003D099F80000A9F80E003000C0B20228D2
:100F400002D1002089F8040094F82802012801D178
:100F500002200BE0012084F8280249462068FFF7B0
:100F6000F7F8002084F828023800C0B2BDE8F28308
:100F700070B504000D002800C0B200060AD5280094
:100F8000C0B210F007004001204410F128060120F3
:100F9000707009E02800C0B210F007004001204442
:100FA00010F594760020707015F00700307094F8FA
:100FB0002802012801D102200AE0012084F8280239
:100FC00031002068FFF775FA002084F8280200201D
:100FD00070BD2DE9F04104000D0016001F0028002F
:100FE000C0B210F007004001204410F59478C8F812
:100FF0001460C8F818700020C8F81C00002088F899
:10100000010015F0070088F8000015F0070F04D163
:1010100041462068FFF72AFB03E041462068FFF7BE
:1010200025FB0020BDE8F081C9B211F0070149019C
:101030000844D0F8440170472DE9F04104000D0048
:1010400016001F002800C0B210F007004001204425
:1010500010F12808C8F81460C8F818700020C8F803
:101060001C00012088F8010015F0070088F8000036
:1010700015F0070F04D141462068FFF7F7FA03E0A7
:1010800041462068FFF7F2FA0020BDE8F08170B514
:1010900004000D0060682900C9B211F00701884200
:1010A00001D2012034E02800C0B200060AD5280091
:1010B000C0B210F007004001204410F128060120C2
:1010C000707007E02800C0B24001204410F594760B
:1010D000002070700120B07015F00700307094F897
:1010E0002802012801D1022012E0012084F8280200
:1010F00031002068FFF775FC15F0070F04D114F5D7
:101100000C712068FFF7F9FC002084F82802002009
:1011100070BD70B504000D0060682900C9B211F0FF
:101120000F01884201D201202EE02800C0B2000643
:101130000AD52800C0B210F007004001204410F189
:1011400028060120707009E02800C0B210F00700E6
:101150004001204410F59476002070700020B0709B
:1011600015F00700307094F82802012801D1022000
:101170000AE0012084F8280231002068FFF756FCBD
:10118000002084F82802002070BD2DE9F0470400FB
:101190002068B0F84400000440F1C6812068B0F82F
:1011A0004400070017F00F0081464846C0B20028EF
:1011B00040F0D980F80635D42068018848F60F70D1
:1011C000014051F400412068018014F1280005001D
:1011D0002068B0F85000297810EBC100216811EBAD
:1011E000400101F20441088880B28005800DE86169
:1011F0006869E969084468610021200000F0E8F9A5
:1012000094F824000028C3D0A8690028C0D194F81D
:10121000240050F080002168A1F84C00002084F8E0
:101220002400B5E714F59470050020680088804616
:101230005FEA085024D52068B0F85000297810EBF8
:10124000C100216811EB400101F20C41088880B215
:101250008005800DE861EB699BB2EA8814F50C719A
:101260002068FFF779FC2068018840F68F70014004
:1012700051F0800120680180200000F090F987E79C
:101280005FEA084084D52068018840F68F700140ED
:1012900051F08001206801802068B0F85000297862
:1012A00010EBC100216811EB400101F20C410888EC
:1012B00080B28005800DE861E869002811D0686976
:1012C00000280ED0EB699BB2EA8869692068FFF7B5
:1012D00043FC6869E969084468610021200000F066
:1012E00067F921682068B0F85000411801F20C40FD
:1012F0008246286900280DD1BAF8002048F2FF3054
:101300000240AAF80020BAF8000050F40040AAF801
:10131000000018E028693F2809D2286940082A7C83
:10132000D20700D5401C8202AAF800200BE02869F1
:1013300040092A7C12F01F0F00D1401E820252F495
:101340000042AAF80020206802884BF68F70024005
:1013500092F4805292F4005242F4004252F0800221
:101360002068028014E720684946C9B230F821009D
:1013700080465FEA084040F19B8020684946C9B238
:1013800030F8211040F68F70014051F08001206844
:101390004A46D2B220F822104846C0B2400120444A
:1013A00010F594700500287B00281AD12068B0F849
:1013B0005000297810EBC100216811EB400101F2C7
:1013C0000C4108888005800D0600300080B200289E
:1013D00051D033009BB2EA8869692068FFF7BCFBF3
:1013E00049E02068297830F8210040041AD52068A7
:1013F000B0F85000297810EBC100216811EB4001D2
:1014000001F2044108888005800D0600300080B29A
:10141000002821D033009BB22A8969692068FFF730
:101420009BFB19E02068B0F85000297810EBC10050
:10143000216811EB400101F20C4108888005800D04
:101440000600300080B2002806D033009BB26A89C3
:1014500069692068FFF780FB2068297830F821103F
:1014600048F68F70014041F4004151F0C0012068FE
:101470002A7820F82210E969300080B24118E96129
:101480006869310089B208446861A869002804D0FD
:10149000300080B22969884204D22978200000F007
:1014A00087F805E0AB696A6929782000FFF791FDAC
:1014B0005FEA08607FF56CAE4846C0B24001204448
:1014C0002830050020684946C9B230F8211048F696
:1014D0000F70014051F4004120684A46D2B220F812
:1014E00022102068B0F85000297810EBC100216864
:1014F00011EB400101F20441088880B28005800DA3
:10150000E8616869E96908446861A869002804D14C
:101510002978200000F05CF83AE6AB696A6929781E
:101520002000FFF789FD33E60020BDE8F08730B4E6
:10153000002513E050F8042BD30744BFA9F10103A1
:101540009A18091F042942F8045BFAD213468C0743
:1015500044BF15809B1CC90748BF1D7050F8041B71
:101560000029E7D130BC70471CB504002068DFF8C3
:101570001013884212D1DFF80C03016851F4000106
:101580000160006810F40000009000980022002123
:10159000142000F064FA142000F076FA13BD10B5A0
:1015A000040014F50C71D4F8680200F0DEFA10BDE6
:1015B00038B504000D002800C0B240012044D0F826
:1015C0003C212900C9B2D4F8680200F002FB31BD09
:1015D00038B504000D002800C0B240012044C26BA1
:1015E0002900C9B2D4F8680200F04AFB31BD10B539
:1015F0000400D4F8680200F012FC10BD38B50400F5
:101600000125A068022801D000F006FD2900C9B21A
:10161000D4F8680200F0EAFBD4F8680200F0B6FBE8
:1016200031BD10B50400D4F8680200F0E3FBA069F6
:10163000002804D09448016851F00601016010BDF3
:1016400010B50400D4F8680200F0DEFB10BD10B540
:1016500004008E48C0F86842C4F8C002884901609E
:101660000821416002218160002181610021C16166
:1016700000210162FFF79FFA002801D000F0CCFCA6
:10168000182300220021D4F8C00200F0C6FC582321
:1016900000228021D4F8C00200F0BFFCC023002249
:1016A0008121D4F8C00200F0B8FC4FF48873002206
:1016B0000121D4F8C00200F0B0FC4FF48073002286
:1016C0008221D4F8C00200F0A8FC002010BDF8B5BB
:1016D000040000250027D4F8C002FFF71BFB06001A
:1016E0003000C0B200F0D8F8C0B2F2BD2DE9F0472A
:1016F00004000D0016001F005FF000085FF0000AF4
:101700003300DBB23A0092B22900C9B2D4F8C00269
:10171000FFF7DFFB81464846C0B200F0BDF8C0B21B
:10172000BDE8F0872DE9F04104000D0000265FF0D0
:1017300000082900C9B2D4F8C002FFF719FC07005D
:101740003800C0B200F0A8F8C0B2BDE8F0812DE9C1
:10175000F04104000D0000265FF000082900C9B226
:10176000D4F8C002FFF793FC07003800C0B200F0C5
:1017700093F8C0B2BDE8F0812DE9F04104000D00FE
:1017800000265FF000082900C9B2D4F8C002FFF7B4
:10179000C0FC07003800C0B200F07EF8C0B2BDE85F
:1017A000F0810200D2F8C0020B00DBB21B0607D5A5
:1017B000C9B211F07F014901084490F82A0006E0FF
:1017C000C9B211F07F014901084490F82A0170471D
:1017D0002DE9F04104000D0000265FF0000829000B
:1017E000C9B2D4F8C002FFF75CFB07003800C0B2F2
:1017F00000F052F8C0B2BDE8F0812DE9F0470400D6
:101800000D0016001F005FF000085FF0000A3B00AB
:101810009BB232002900C9B2D4F8C002FFF70CFC19
:1018200081464846C0B200F037F8C0B2BDE8F08744
:101830002DE9F04704000D0016001F005FF00008BE
:101840005FF0000A3B009BB232002900C9B2D4F815
:10185000C002FFF7BEFB81464846C0B200F01CF84C
:10186000C0B2BDE8F08738B504000D002900C9B248
:10187000D4F8C002FFF7D8FB32BD0100044870471E
:10188000005C00401C10024010ED00E0180C00202D
:10189000840E002070477047010000220800C0B28B
:1018A000002805D0022807D004D3032806D007E07B
:1018B000002006E0022004E0012002E0022000E017
:1018C0000220C0B27047010262B38B0708D0521EDB
:1018D00011F8013B00F8013B00F024808B07F6D1A2
:1018E000830740F0208000BF103A07D330B4B1E83E
:1018F0003810103AA0E83810F9D230BC530724BF92
:10190000B1E80810A0E8081044BF51F8043B40F8C3
:10191000043BD20724BF31F8022B20F8022B44BF2E
:101920000B7803707047121F17D35B0009D151F871
:10193000043B20F8023B1B0C121F20F8023BF6D29E
:101940000BE051F8043B00F8013B1B0A20F8023B76
:101950001B0C121F00F8013BF3D238BF121D521EA0
:1019600024BF11F8013B00F8013BF8D87047000094
:1019700010B410F007034B4C22684FF6FF010A40E9
:10198000494951EA03210A43226010BC7047454887
:101990000068C0F302207047010049B2002909D451
:1019A000012210F01F018A40404903005BB25B092D
:1019B00041F82320704710B4020052B2002A05D427
:1019C0000A013B4B040064B21A5508E00A01394B86
:1019D000040064B214F00F04234403F8042C10BC78
:1019E000704770B4030013F00704D4F10700052812
:1019F00001D3042001E0D4F10700251D072D01D2F9
:101A0000002500E0E51E012616FA00F0401E014008
:101A1000A94016FA05F56D1E2A401143080070BC56
:101A2000704710B50400601EB0F1807F01D3012023
:101A30000EE0601E204908600F215FF0FF30FFF7C5
:101A4000BAFF00201D49086007201D4908600020DA
:101A500010BD10B504002000FFF78AFF10BD2DE96E
:101A6000F04104000D0016000027FFF790FF8046AC
:101A7000320029004046FFF7B4FF0100200040B2C9
:101A8000FFF799FFBDE8F08110B50400200040B2D7
:101A9000FFF782FF10BD10B504002000FFF7C1FF63
:101AA00010BD00000CED00E00000FA0500E100E0D0
:101AB00000E400E018ED00E014E000E018E000E0D1
:101AC00010E000E070B505000C001600002D01D1FB
:101AD000022012E0D5F8B402002802D00020C5F898
:101AE000B402002C01D0C5F8B042012085F89C0258
:101AF0002E702800FFF7ABFD002070BD0200002310
:101B0000002903D0C2F8B412002000E00220C0B2C5
:101B1000704710B504002000FFF7D9FD002010BD6C
:101B200001000020704770B504000D000226D4F8B3
:101B3000B40200280AD02900C9B22000D4F8B42287
:101B400012689047002801D1002006003000C0B282
:101B500070BD38B504000D002900C9B22000D4F8CA
:101B6000B42252689047002032BD38B504000D0001
:101B7000290014F52A7000F04EFE0120C4F89402EA
:101B8000B4F8AE02C4F8980294F8A80210F01F004E
:101B9000002803D002280DD006D311E014F52A71D5
:101BA000200000F061FA12E014F52A71200000F024
:101BB000AEFA0CE014F52A71200000F0DFFA06E01E
:101BC00094F8A81211F080012000FFF7C0FD00205A
:101BD00032BDF8B504000F0015003800C0B200286F
:101BE00039D114F5AA700600D4F89402032826D13E
:101BF0003069F168884210D2F1683069091AF160E1
:101C0000F0683169884201D2F26800E0326992B22C
:101C10002900200000F08BFE30E0D4F8B402006907
:101C2000002808D094F89C02032804D12000D4F89E
:101C3000B41209698847200000F086FE1EE0D4F83F
:101C4000940205281AD10020C4F894020021200033
:101C5000FFF77DFD12E0D4F8B402806900280BD0B4
:101C600094F89C02032807D13900C9B22000D4F8A7
:101C7000B4229269904701E0022000E00020F2BD0A
:101C8000F8B504000D0016002800C0B2002868D185
:101C900014F114000700D4F8940202284AD13869DC
:101CA000F968884210D2F9683869091AF960FA6847
:101CB00092B23100200000F015FE00230022002126
:101CC0002000FFF7B5FD41E0B8683969B0FBF1F2DB
:101CD00001FB1200002817D1B8683969884213D374
:101CE000B868D4F8981288420ED200220021200051
:101CF00000F0F8FD0020C4F8980200230022002123
:101D00002000FFF795FD21E0D4F8B402C068002858
:101D100008D094F89C02032804D12000D4F8B4120F
:101D2000C968884780212000FFF711FD200000F0DE
:101D300018FE0BE0D4F89402042803D0D4F89402DF
:101D4000002803D180212000FFF701FD94F8A002B4
:101D5000012819D12000FFF7E3FE002084F8A0023B
:101D600012E0D4F8B402406900280BD094F89C0229
:101D7000032807D12900C9B22000D4F8B42252693F
:101D8000904701E0022000E00020F2BD10B5040001
:101D90004023002200212000FFF7A8FC0120C4F806
:101DA00058014020C4F86401402300228021200013
:101DB000FFF79CFC0120A06140206062012084F8B4
:101DC0009C020020C4F89402002060600020C4F847
:101DD000A402D4F8B802002806D06168C9B2200075
:101DE000D4F8B42252689047002010BD020011744C
:101DF00000207047010091F89C0281F89D020420A8
:101E000081F89C0200207047010091F89C02042890
:101E100003D191F89D0281F89C020020704710B513
:101E2000040094F89C02032809D1D4F8B402C069D4
:101E3000002804D02000D4F8B412C96988470020D3
:101E400010BD000080B500F099FD00F00CF800F026
:101E50009EF800F053F800F05CF800F0A1FD69482E
:101E600000F0E6FDFEE718B593B02821002209AC8A
:101E7000200000F095FF142100226C46200000F0A5
:101E80008FFF1021002205AC200000F089FF012007
:101E900009905FF480300A9000210B9101210D918F
:101EA0000221109111905FF48010129009A800F0A7
:101EB000ABFF002801D000F0AFF80F200090022007
:101EC0000190002002904FF4806003900020049065
:101ED0000121684601F098F9002801D000F09CF833
:101EE000102005905FF48000089005A801F0A0FA8A
:101EF000002801D000F090F814B010BD80B5424821
:101F00004249016001F02AFB002801D000F084F86A
:101F100001BD10B586B01021002202AC200000F0F7
:101F20003FFF082100226C46200000F039FF354CAD
:101F30005FF0804020604FF4965060600020A06009
:101F400042F20F70E060002020610020A0612000BC
:101F500000F052FD002801D000F05EF84FF48050F0
:101F6000029002A9200000F033FE002801D000F00A
:101F700053F800200090002001906946200001F0F5
:101F8000FFFA002801D000F047F806B010BD18B5E0
:101F900085B01021002201AC200000F001FF1C4898
:101FA000016851F010010160016811F01001009109
:101FB0000099016851F020010160016811F02001D1
:101FC00000910099016851F004010160006810F06F
:101FD0000400009000980F4C00224FF400512000A4
:101FE00001F005FC4FF40050019001200290002008
:101FF00003900220049001A9200001F0E9FA06B044
:1020000010BD0000F81400203815002000300240F8
:102010001810024000100140704730B4040008005E
:1020200080B2000608D5080080B210F00700400119
:10203000204410F1280505E0080080B2400120444A
:1020400010F59475100080B2002803D10020287389
:10205000EB8005E0012028732B811800000C6881BB
:10206000002030BC7047000070B504000D00002651
:10207000287810F0600000280AD0202801D04028DD
:102080003ED129002000D4F8B422926890473BE06A
:102090006878002820D0012828D0032821D00528DE
:1020A0000BD0062804D0082811D009280AD022E035
:1020B0002900200000F0A0F921E02900200000F014
:1020C0009CFA1CE02900200000F0CBFA17E0290060
:1020D000200000F02FFB12E02900200000F051FB4F
:1020E0000DE02900200000F072FB08E0290020002C
:1020F00000F07AFB03E02900200000F0A0FB03E0E1
:102100002900200000F09BFB3000C0B270BD70B50C
:1021100004000D000026287810F06000002803D08D
:10212000202801D0402823D194F89C02401E022888
:1021300019D82879022811DA29002000D4F8B4220D
:10214000926890470600E88800280BD13000C0B2A2
:10215000002807D1200000F0F7FB03E02900200051
:1021600000F06DFB03E02900200000F068FB03E0B5
:102170002900200000F063FB002070BD2DE9F04134
:1021800004000D000026AF88287810F060000028B9
:102190000BD0202802D0402840F0268129002000C2
:1021A000D4F8B4229268904722E1287810F06000B9
:1021B000202807D129002000D4F8B4229268904743
:1021C000C0B217E16878002870D001283CD00328FD
:1021D00040F0058194F89C02022802D0032817D011
:1021E0002DE03800C0B200280DD03800C0B28028E1
:1021F00009D03900C9B22000FFF7A9FA80212000D8
:10220000FFF7A5FA03E02900200000F018FB1AE010
:10221000688800280FD13800C0B200280BD03800E1
:10222000C0B2802807D0E888002804D13900C9B29C
:102230002000FFF78CFA200000F086FB03E0290065
:10224000200000F0FCFACEE094F89C02022802D0B4
:10225000032817D025E03800C0B200280DD0380080
:10226000C0B2802809D03900C9B22000FFF76FFA48
:1022700080212000FFF76BFA03E02900200000F026
:10228000DEFA12E0688800280AD117F07F0F04D028
:102290003900C9B22000FFF76FFA200000F054FBAC
:1022A00003E02900200000F0CAFA9CE094F89C02A8
:1022B000022802D003282FD08CE03800C0B20028BA
:1022C00008D03800C0B2802804D02900200000F0D7
:1022D000B6FA83E03800C0B200060AD53900C9B2A8
:1022E00011F07F011420414304EB010010F11408A8
:1022F00009E03900C9B211F07F011420414304EB19
:10230000010010F5AA780020C8F80000022241461A
:10231000200000F0D1FA61E03800C0B200060FD50D
:102320003900C9B211F00F011420414304EB010040
:102330008069002815D12900200000F080FA4DE0C6
:102340003900C9B211F00F011420414304EB010020
:10235000D0F85801002804D12900200000F06FFABD
:102360003CE03800C0B200060AD53900C9B211F00D
:102370007F011420414304EB010010F1140809E02F
:102380003900C9B211F07F011420414304EB010070
:1023900010F5AA783800C0B2002803D03800C0B2C7
:1023A000802803D10020C8F800000DE03900C9B230
:1023B0002000FFF7F6F9002803D00120C8F800003C
:1023C00002E00020C8F8000002224146200000F090
:1023D00073FA03E02900200000F031FA03E029003D
:1023E000200000F02CFA03E02900200000F027FA7A
:1023F0003000C0B2BDE8F081F8B504000D00002047
:10240000ADF8000000260027688880B2000AC0B23C
:1024100001280AD0022810D0032823D0062800F073
:10242000A580072800F0B280C2E06946207CD4F87D
:10243000B022126890470600BFE0207C002808D137
:102440006846D4F8B412896A884706000220707082
:1024500007E06846D4F8B412C96A8847060002202B
:102460007070AAE0A878002808D002282CD018D3D1
:1024700004284FD03BD305285FD071E0D4F8B002D8
:102480004068002807D06946207CD4F8B022526802
:102490009047060004E02900200000F0D0F97F1CDE
:1024A00063E0D4F8B0028068002807D06946207C39
:1024B000D4F8B02292689047060004E0290020007A
:1024C00000F0BDF97F1C50E0D4F8B002C0680028CD
:1024D00007D06946207CD4F8B022D2689047060025
:1024E00004E02900200000F0AAF97F1C3DE0D4F8A8
:1024F000B0020069002807D06946207CD4F8B022D9
:1025000012699047060004E02900200000F097F9C6
:102510007F1C2AE0D4F8B0024069002807D0694641
:10252000207CD4F8B02252699047060004E02900CC
:10253000200000F084F97F1C17E0D4F8B002806915
:10254000002807D06946207CD4F8B02292699047D1
:10255000060004E02900200000F071F97F1C04E06F
:102560002900200000F06BF97F1C26E0207C002869
:1025700006D16846D4F8B412496B8847060004E0D7
:102580002900200000F05BF97F1C16E0207C002869
:1025900008D16846D4F8B412096B884706000720B2
:1025A000707004E02900200000F049F97F1C04E06D
:1025B0002900200000F043F97F1C3800C0B2002839
:1025C0001AD1BDF80000002810D0E88800280DD0EE
:1025D000BDF80000E988884202D3E888ADF8000021
:1025E000BDF800203100200000F066F9E8880028DE
:1025F00002D1200000F0A8F9F1BD70B504000D0073
:10260000A888002828D1E888002825D16888802853
:1026100022D2A87810F07F00060094F89C020328CC
:1026200004D12900200000F00AF919E084F89E6224
:102630003100C9B22000FFF7CBF8200000F084F988
:102640003000C0B2002803D0022084F89C0207E0CA
:10265000012084F89C0203E02900200000F0EFF83C
:1026600070BD70B504000D00314E68883070307850
:10267000022804DB2900200000F0E1F857E094F87C
:102680009C02022802D003281BD048E030780028A2
:1026900013D030786060032084F89C0231782000E9
:1026A000FFF741FA022804D12900200000F0C7F802
:1026B0003DE0200000F048F902E0200000F044F97D
:1026C00035E0307800280CD1022084F89C02307864
:1026D000606031782000FFF73CFA200000F034F908
:1026E0001CE030786168884215D06168C9B220006A
:1026F000FFF72FFA3078606031782000FFF713FA87
:10270000022804D12900200000F099F80FE02000F1
:1027100000F01AF902E0200000F016F907E02900A5
:10272000200000F08CF831782000FFF712FA70BD1D
:102730004815002038B504000D00E888012804D0B1
:102740002900200000F07BF81AE094F89C02401E5B
:10275000012802D9801E09D00EE00020A0600122CD
:1027600014F10801200000F0A7F809E00122211D62
:10277000200000F0A1F803E02900200000F05FF83D
:1027800031BD38B504000D0094F89C02401E0228AB
:1027900018D8E888022804D02900200000F04FF85B
:1027A00014E00120E060D4F8A402002803D0E0681F
:1027B00050F00200E060022214F10C01200000F051
:1027C0007BF803E02900200000F039F831BD38B56E
:1027D00004000D006888012805D10120C4F8A40276
:1027E000200000F0B1F831BD38B504000D0094F8B8
:1027F0009C02401E022809D86888012805D10020C3
:10280000C4F8A402200000F09FF803E02900200093
:1028100000F015F831BD0A7802704A7842708A7863
:10282000CB7812EB032242800A794B7912EB032218
:1028300082808A79CB7912EB0322C280704738B547
:1028400004000D0080212000FEF781FF0021200000
:10285000FEF77DFF31BDF8B504000D00160000271E
:10286000002C1ED0200000F01DF84000801C30809D
:1028700030783900C9B268547F1C03203900C9B2CE
:1028800068547F1C207800280BD020783900C9B20A
:102890006854641C7F1C00203900C9B268547F1C36
:1028A000F0E7F1BD020000201178002902D0401CA1
:1028B000521CF9E7C0B2704770B504000D00160055
:1028C0000220C4F89402300080B2E061300080B28F
:1028D000206233009BB22A0000212000FEF78DFF0A
:1028E000002070BD70B504000D00160033009BB2CF
:1028F0002A0000212000FEF780FF002070BD70B587
:1029000004000D0016000320C4F89402300080B2C9
:10291000C4F85C01300080B2C4F8600133009BB29F
:102920002A0000212000FEF783FF002070BD70B553
:1029300004000D00160033009BB22A000021200085
:10294000FEF776FF002070BD10B504000420C4F827
:1029500094020023002200212000FEF74EFF0020F9
:1029600010BD10B504000520C4F894020023002215
:1029700000212000FEF75CFF002010BD80B5074855
:10298000016851F0100101600320FFF762F8002098
:1029900000F068FF00F08CFF002002BD0020024024
:1029A00010B5114C002211492000FFF78BF80028C8
:1029B00001D0FFF731FB0E492000FFF79FF80028F8
:1029C00001D0FFF729FB0B49200001F05DF9002839
:1029D00001D0FFF721FB2000FFF79BF8002801D072
:1029E000FFF71AFB10BD00BF54090020280100208A
:1029F000140000201801002010B50400002C01D1A3
:102A0000012014E094F83D00002805D1002084F84E
:102A10003C00200000F07BFF022084F83D00211DD7
:102A2000206800F04BF9012084F83D00002010BD23
:102A300001000868C06850F001000A68D0600868AA
:102A4000826812F00702062A05D00868006850F074
:102A500001000B6818600020704710B50400206862
:102A6000006980071AD52068C068800716D57FF0F6
:102A7000020021680861012020772068806910F039
:102A8000030F03D0200001F05DF905E0200001F004
:102A90005AF9200001F058F90020207720680069D9
:102AA00040071AD52068C068400716D57FF004009B
:102AB00021680861022020772068806910F4407F37
:102AC00003D0200001F03EF905E0200001F03BF9C1
:102AD000200001F039F90020207720680069000704
:102AE0001AD52068C068000716D57FF00800216855
:102AF0000861042020772068C06910F0030F03D01C
:102B0000200001F01FF905E0200001F01CF9200071
:102B100001F01AF90020207720680069C0061AD554
:102B20002068C068C00616D57FF0100021680861D3
:102B3000082020772068C06910F4407F03D020006F
:102B400001F000F905E0200001F0FDF8200001F09F
:102B5000FBF80020207720680069C0070AD52068AC
:102B6000C068C00706D57FF0010021680861200019
:102B700001F0EBF82068006900060AD52068C068FB
:102B8000000606D57FF0800021680861200001F072
:102B9000DDF82068006940060AD52068C068400654
:102BA00006D57FF0400021680861200001F0CFF8D1
:102BB0002068006980060AD52068C068800606D5AE
:102BC0007FF0200021680861200001F0C1F810BDED
:102BD00070B504000D0094F83C00012801D10220DA
:102BE0006BE0012084F83C00022084F83D0020685E
:102BF000866836F0770636F47F4620688660286857
:102C000000284ED010284CD020284AD0302848D058
:102C100040283CD0502826D060282ED0702807D0DD
:102C2000B0F5805F03D0B0F5005F0FD03EE03DE02F
:102C3000EB686A68A968206800F0A5F820688068D9
:102C400050F077000600206886602FE0EB686A6825
:102C5000A968206800F097F82068806850F48040E8
:102C60002168886022E0EA686968206800F05EF800
:102C70005021206800F07FF818E0EA686968206851
:102C800000F066F86021206800F075F80EE0EA6850
:102C90006968206800F04AF84021206800F06BF86D
:102CA00004E02968206800F066F8FFE7012084F856
:102CB0003D00002084F83C00002070BD10B4036883
:102CC000174CA04208D0B0F1804F05D0154A904271
:102CD00002D0154A904203D133F070034A6813437F
:102CE000A04208D0B0F1804F05D00E4A904202D0E9
:102CF0000D4A904203D133F44073CA68134333F052
:102D000080034A69134303608A68C2620A68826268
:102D1000A04201D10A6902630122426110BC7047DE
:102D2000002C0140000400400008004010B4046A78
:102D3000036A5B085B000362836933F0F00353EAC4
:102D4000021334F00A040C438361046210BC704720
:102D500010B4036A33F0100303628369046A33F426
:102D6000704353EA023334F0A00454EA011483613F
:102D7000046210BC7047836833F0700351F007029F
:102D800013438360704730B4846834F47F4452EA5C
:102D9000010555EA03252C43846030BC70470000D0
:102DA00062F30F2262F31F42401810F0030308D0B1
:102DB000C91A1FD3DB0748BF00F8012D28BF20F830
:102DC000022D130030B414461546103928BF20E9EF
:102DD0003C00FAD8490728BF20E90C0048BF40F85A
:102DE000042D890028BF20F8022D48BF00F8012DCE
:102DF00030BC7047C91818BF00F8012DCB0728BF99
:102E000000F8012D704700002DE9FC470400002C5C
:102E100001D10120F6E12078C0076BD5DFF8D0059D
:102E2000016811F00C01042907D0016811F00C01B0
:102E300008290CD10068C00309D5DFF8B005006887
:102E4000800357D56068002854D10120DAE160681A
:102E5000B0F5803F06D1DFF89405016851F4803168
:102E6000016026E0606800280AD1DFF8800501686B
:102E700031F480310160016831F48021016018E093
:102E80006068B0F5A02F0AD1DFF86005016851F441
:102E900080210160016851F48031016009E0DFF8B0
:102EA0004C05016831F480310160016831F4802102
:102EB0000160606800280ED000F04CFF0500DFF8CC
:102EC0002C050068800315D400F044FF401B6528E2
:102ED000F5D3032096E100F03DFF0500DFF80C0577
:102EE0000068800306D500F035FF401B6528F5D348
:102EF000032087E12078800750D5DFF8F4040168CB
:102F000011F00C0F07D0016811F00C01082914D141
:102F10000068C00311D4DFF8D4040168890704D520
:102F20002169012901D001206CE1016831F0F8012B
:102F3000626951EAC201016030E0206900281AD0BC
:102F40000120DFF8C014086000F004FF0500DFF87E
:102F50009C040168890706D400F0FCFE401B03288E
:102F6000F5D303204EE1016831F0F801626951EABE
:102F7000C201016012E00020DFF88814086000F050
:102F8000E9FE0500DFF864040068800706D500F05C
:102F9000E1FE401B0328F5D3032033E1207800072E
:102FA0002CD5A069002816D00120DFF85C14086039
:102FB00000F0D0FE0500DFF848040068800706D462
:102FC00000F0C8FE401B0328F5D303201AE10120BE
:102FD00000F0F9F912E00020DFF82C14086000F08E
:102FE000B9FE0500DFF818040068800706D500F078
:102FF000B1FE401B0328F5D3032003E120784007EE
:1030000040F18E800027DFF80484D8F80000C0006B
:103010000DD4D8F8000050F08050C8F80000D8F85F
:10302000000010F080500090009801200700DFF8A9
:10303000E093D9F80000C00513D4D9F8000050F48B
:103040008070C9F8000000F085FE0500D9F8000086
:10305000C00506D400F07EFE401B6528F6D3032091
:10306000D0E0E068012806D1DFF8A803016851F03C
:103070000101016025E0E06800280AD1DFF894032F
:103080000168490849000160016831F004010160EC
:1030900017E0E06805280AD1DFF87803016851F0ED
:1030A00004010160016851F00101016009E0DFF8ED
:1030B00064030168490849000160016831F00401B6
:1030C0000160E068002810D000F044FE0500DFF841
:1030D00044030068800719D400F03CFE401B41F215
:1030E00089318842F3D303208CE000F033FE0500E1
:1030F000DFF820030068800708D500F02BFE401B96
:1031000041F289318842F3D303207BE03800C0B21A
:10311000012805D1D8F8000030F08050C8F8000030
:10312000E06900286DD0DFF8C882D8F8000010F000
:103130000C00082851D0E06902283BD1DFF8D8A262
:103140000020CAF8000000F005FE0700DFF89C929E
:10315000D9F80000800106D500F0FCFDC01B032853
:10316000F4D303204EE0206AB0F5803F07D1D8F8B1
:10317000001031F40031A0680143C8F80010D8F8FD
:10318000001031F47411206A0143606A0143C8F8E9
:1031900000100120CAF8000000F0DCFD0500D9F89D
:1031A000000080012DD400F0D5FD401B0328F6D38C
:1031B000032027E00020DFF86012086000F0CAFD5D
:1031C0000500DFF82802006880011AD500F0C2FD72
:1031D000401B0328F5D3032014E0E069012801D146
:1031E00001200FE0D8F80000060016F48030216AB4
:1031F000884204D116F47010616A884201D001201F
:1032000000E00020BDE8F6872DE9F04104000D0044
:10321000002C01D101209CE0DFF80072386810F02A
:103220000700A8420BD23868C008C00028433860A5
:10323000386810F00700A84201D0012089E020780A
:10324000800717D52078400705D5DFF8A40101686D
:1032500051F4E06101602078000704D564480168FA
:1032600051F46051016062490A6832F0F002A068CE
:1032700002430A602078C00735D56068012805D16F
:103280005A480068800310D4012062E06068022878
:1032900005D156480068800107D4012059E0534801
:1032A0000068800701D4012053E0DFF84481D8F89A
:1032B00000108908890060680143C8F8001000F018
:1032C00049FD0600D8F8000010F00C006168B0EB72
:1032D000810F08D000F03EFD801B41F28931884209
:1032E000F0D3032035E0386810F0070085420BD298
:1032F0003868C008C00028433860386810F00700FC
:10330000A84201D0012024E02078400706D53849A2
:103310000A6832F4E062E06802430A60207800073D
:1033200007D53348016831F46051226951EAC2017E
:10333000016000F010F83A492D4A1268C2F30312F6
:10334000895CC8402C4908602C48006800F08AFA63
:103350000020BDE8F081F0B585B001A83149102208
:10336000FEF7C2FA30480088ADF8000000200021C6
:103370000022002300251E4E346814F00C07042F91
:1033800002D0082F02D01BE01A481AE001A8C4F3AB
:103390008347C05D0300E0030CD568463668C6F37A
:1033A0004046805D0100134800FB03F0B0FBF1F0E4
:1033B000020003E01D4800FB03F00200100000E0E3
:1033C0000C4805B0F0BD81B00B490968C9084FF43D
:1033D0007A72B1FBF2F101FB00F1009100BF00999C
:1033E0004A1E00920029F9D101B070470010024036
:1033F0000410024000127A000400002000000020A7
:103400002410024000004242800442421C1002404C
:103410000070004020100240600042420020024044
:10342000B0440008A0440008C618000800093D0088
:103430002DE9F8430500002600242878C0076CD544
:103440000027DFF80481D8F80000C0000DD4D8F8B8
:10345000000050F08050C8F80000D8F8000010F0CC
:1034600080500090009801200700DFF8E090D9F824
:103470000000C00513D4D9F8000050F48070C9F8DA
:10348000000000F067FC0600D9F80000C00506D473
:1034900000F060FC801B6528F6D3032052E0DFF8C3
:1034A000B090D9F8000010F440700400002C22D035
:1034B000686810F4407084421DD0D9F8000030F4E0
:1034C0004070040023480121016000210160C9F817
:1034D0000040E0070FD500F03DFC0600D9F80000E1
:1034E000800708D400F036FC801B41F28931884205
:1034F000F4D3032026E0D9F8001031F44071686855
:103500000143C9F800103800C0B2012805D1D8F82D
:10351000000030F08050C8F800002878800706D5F9
:103520000D490A6832F44042A86802430A602878CC
:10353000C00606D508490A6832F48002E8680243EA
:103540000A600020BDE8F2831C10024000700040B9
:1035500020100240400442420410024010B5040012
:10356000002C01D101200AE06079002804D100205C
:103570002071200000F0BAF901206071002010BD18
:1035800010B4020092F83C00012801D102201CE096
:10359000012082F83C00022082F83D001068436858
:1035A0001068846833F070030868034334F08004C3
:1035B000486804431068436010688460012082F802
:1035C0003D00002082F83C00002010BC7047000045
:1035D0002DE9F84703005FF0000E5FF0000808686F
:1035E00030FA0EF0002800F00081012010FA0EF0F1
:1035F0000400086820400500A54240F0F3804868B8
:10360000002831D0012820D0022825D003283CD022
:1036100011281DD0122823D0DFF808C2604523D01E
:10362000DFF804C260451FD0DFF800C260451BD040
:10363000DFF8FCC1604517D0DFF8F8C1604513D052
:10364000DFF8F4C160450FD022E0C86880461FE073
:10365000C868001D80461BE0C8680830804617E037
:10366000C8680C30804613E08868002802D1042026
:10367000804609E08868012803D1082080461C6143
:1036800002E0082080465C6102E000208046FFE7FF
:10369000B5F5807F01D21E0000E01E1DB5F5807FCC
:1036A00002D25FEA8E0702E0BEF10807BF005FF0BA
:1036B0000F09D6F800C019FA07F03CEA000C18FA16
:1036C00007F050EA0C0CC6F800C04868C00040F192
:1036D00089805A48D0F800C05CF0010CC0F800C0E6
:1036E000006810F0010000900098DFF854C17046A7
:1036F00080085CF820A01EF00300C0B2800019FA18
:1037000000F93AEA090A4F48834202D15FF0000902
:1037100013E04D48834202D15FF001090DE04B48B0
:10372000834202D15FF0020907E04948834202D197
:103730005FF0030901E05FF004091EF00300C0B26E
:10374000800019FA00F9524659EA020270468008D0
:103750004CF820204868C00307D53E48D0F800C088
:1037600055EA0C0CC0F800C006E03A48D0F800C09A
:103770003CEA050CC0F800C04868800307D536480D
:10378000D0F800C055EA0C0CC0F800C006E0324882
:10379000D0F800C03CEA050CC0F800C04868C00280
:1037A00007D52E48D0F800C055EA0C0CC0F800C070
:1037B00006E02A48D0F800C03CEA050CC0F800C07A
:1037C0004868800207D52648D0F800C055EA0C0C9E
:1037D000C0F800C006E02248D0F800C03CEA050C62
:1037E000C0F800C01EF1010EF9E6BDE8F187130034
:1037F000DBB2002B03D00B009BB2036103E00B0094
:103800009BB21B0403617047C2680B009BB21A4253
:1038100003D00A0092B2426102E00A0092B2026151
:10382000704700000000111000001210000021106D
:103830000000221000003110000032101810024069
:103840000800014000080140000C01400010014048
:103850000014014000040140040401400804014038
:103860000C04014010B504004FF47A700D4909783A
:10387000B0FBF1F00C490968B1FBF0F0FEF70BF971
:10388000002801D001200CE0102C09D200222100D8
:103890005FF0FF30FEF7E3F804480460002000E02A
:1038A000012010BD80010020040000200000002045
:1038B00081B02348016851F001010160006810F0F7
:1038C0000100009000981F48016851F0805101608C
:1038D000006810F08050009000981B49086830F094
:1038E000E06050F00070086001B0704781B001687E
:1038F000164A914209D116490A6852F040020A60FC
:10390000096811F040010091009901B070471CB5A1
:1039100004002068B0F1804F11D10A48016851F0CD
:1039200001010160006810F0010000900098002281
:1039300000211C20FEF793F81C20FEF7A5F813BD0C
:10394000181002401C1002400400014000300240E8
:1039500014100240F8B505000E000027287C00284E
:1039600013D14FF40073022281212800FDF7BEFE1F
:103970000120E8624FF40073022201212800FDF7C4
:10398000B5FE0120C5F86C0110E040230222812120
:103990002800FDF7ABFE0120E8624023022201214E
:1039A0002800FDF7A3FE0120C5F86C0108230322BF
:1039B00082212800FDF79AFE012028644FF4077049
:1039C000FDF75BFFC5F8B802D5F8B802002802D1B0
:1039D000012007001FE0D5F8B8020400D5F8BC02AA
:1039E000006880470020C4F814020020C4F81802C0
:1039F000287C002808D14FF40073D4F80422012158
:103A00002800FDF715FF06E04023D4F80422012129
:103A10002800FDF70DFF3800C0B2F2BD70B50400FC
:103A20000D00002681212000FDF77CFE0020E062D1
:103A300001212000FDF776FE0020C4F86C018221F0
:103A40002000FDF76FFE00202064D4F8B8020028A3
:103A50000AD0D4F8BC0240688047D4F8B802FDF719
:103A600019FF0020C4F8B8023000C0B270BDF8B52C
:103A700004000D00D4F8B86200208DF8000000208A
:103A8000ADF802000027287810F06000002828D048
:103A9000202863D1E88800281BD0287800060CD5A0
:103AA000EA8831006878D4F8BC329B689847EA8885
:103AB00031002000FEF700FF12E0687886F800026F
:103AC000E88886F80102EA8831002000FEF717FF37
:103AD00006E0002229006878D4F8BC329B68984739
:103AE00042E06878002804D00A2814D00B2823D09C
:103AF0002DE094F89C02032806D102220DF1020168
:103B00002000FEF7D9FE05E029002000FEF797FE11
:103B10000220070021E094F89C02032805D101222D
:103B200069462000FEF7C8FE05E029002000FEF7E8
:103B300086FE0220070010E094F89C02032805D0BE
:103B400029002000FEF77BFE0220070005E0290087
:103B50002000FEF774FE0220070005E02900200087
:103B6000FEF76DFE022007003800C0B2F2BDF8B5C6
:103B700004000D00D4F8B862D4F8C072D4F8B802CA
:103B800000282CD014212800C0B248432044C0692A
:103B900000281FD02800C0B248432044C0692A0032
:103BA000D2B252013A44926BB0FBF2F302FB130023
:103BB00000280FD12800C0B201FB00F104EB010086
:103BC0000021C161002300222900C9B22000FDF7B5
:103BD00014FE02E00020C6F81402002000E00220DB
:103BE000F2BD70B504000D00D4F8B8622900C9B266
:103BF0002000FDF738FEC6F80C02D4F8B802002801
:103C000009D016F50371D6F80402D4F8BC22D268A4
:103C10009047002000E0022070BD38B50400D4F8C1
:103C2000B852D4F8BC02002810D095F80002FF2842
:103C30000CD095F8012292B2290095F80002D4F830
:103C4000BC329B689847FF2085F80002002032BDF7
:103C50000100432008800848704701004320088085
:103C6000064870470100432008800548704701005E
:103C70000A20088003487047900000204C00002074
:103C8000D40000200800002002000220002903D0F8
:103C9000C2F8BC1200231800C0B2704710B4030071
:103CA000D3F8B842C4F80812100080B2C4F8100269
:103CB000002010BC70470200D2F8B832C3F80412DA
:103CC0000020704738B50400D4F8B852D4F8B802D0
:103CD000002816D0D5F81402002810D10120C5F80C
:103CE0001402D5F810022063D5F810329BB2D5F833
:103CF000082281212000FDF780FD002002E0012044
:103D000000E0022032BD38B50400D4F8B852D4F82F
:103D1000B802002814D0207C002808D14FF400738A
:103D2000D5F8042201212000FDF782FD06E04023A2
:103D3000D5F8042201212000FDF77AFD002000E0E3
:103D4000022032BD70477047704770477047704718
:103D50007047000001480068704700BF441500200C
:103D600010B40B00591E002B10D013785840521C71
:103D7000864C10F00F0354F8233093EA101313F01D
:103D80000F0054F8200090EA1310EAE710BC7047C7
:103D900038B50400002C02D0012C0FD023E0002005
:103DA0000100C9B20F2908DA0100C9B2784A03003C
:103DB000DBB21B01D150401CF2E714E075490868E2
:103DC000421C0A6000F036F900252800C0B20F2816
:103DD00008DA00F0E5F86E492A00D2B212018850E4
:103DE0006D1CF2E7FFE731BD2DE9F14F84B00027EC
:103DF000002600240020009000255FF066095FF097
:103E0000000ADFF89481524649464046FEF7C8FF53
:103E10005FF000084046C0B2032812DA5FF00409E0
:103E20005FF0000A5D494246D2B22720424301EBCF
:103E3000020B524649465846FEF7B2FF18F10108F8
:103E4000E8E75FF000084046C0B20F284CDABDF842
:103E50001000012111FA08F1084242D05FF0270951
:103E6000DFF838A109FB07F05044052101FB06F1FA
:103E7000084480F805800420029045484146C9B2B4
:103E800009010844019009FB07F05044052101FB9A
:103E900006F1084410F1060B029A01995846FDF705
:103EA00013FD761C641C062E1BD1002006005FF05B
:103EB000AA3009FB07F14AF80100062009FB07F1C7
:103EC0005144087109FB07F00AEB0002232100208E
:103ED000FFF746FF09FB07F90AEB0901C1F82300C8
:103EE0007F1C18F10108AEE7002C4CD05FF02708CA
:103EF000DFF8A8905FF0AA3008FB07F149F801004D
:103F000008FB07F04844067108FB07F04844052108
:103F100001FB06F100EB010A08FB07F009EB0002C8
:103F2000052101FB06F1491D0020FFF719FFCAF822
:103F300005005FF0000A5046C0B287421ED35046CB
:103F4000C0B208FB00F04844017905204143093123
:103F50000091009802905046C0B208FB00F048441F
:103F600001900D4800EB050B029A01995846FDF7A8
:103F7000ABFC009845191AF1010ADCE7290089B267
:103F8000054800F0A2F805B0BDE8F08FA443000892
:103F9000A4120020401500209014002018140020C6
:103FA000F0B5274C274A2078274B6FF0004150BBD3
:103FB0000820656803FB05250E46B5FBF6F601FBF8
:103FC0001655401E6560F4D1204D2E4610206768BE
:103FD00003FB07278C46B7FBFCFC01FB1C776760E3
:103FE00046F8047B8E4603FB0727B7FBFEFE01FB6A
:103FF0001E776760401E46F8047BE8D1E86FC5F87D
:10400000800001252570606803FB00220B46B2FB8F
:10401000F3F301FB13210D4A616092F8803003F045
:104020001F0352F82300C2F8800042F8231020F04A
:104030004040F0BD024900220A704860704700000D
:10404000780100205FF36E3C0D6619009413002088
:1040500010B52B4C00222B492000FFF71FFE2A49E8
:104060002000FFF728FE002010BD0020704703004D
:104070001800C0B2002810D001280FD002280ED09E
:1040800003280DD004280CD020280BD021280AD0DA
:10409000222809D0232808D008E007E006E005E040
:1040A00004E003E002E001E000E0FFE700207047E9
:1040B00070B504000D00124E21003000FFF7FBFD2B
:1040C0003000FFF720FE002070BD2DE9F041040014
:1040D0000D0000260A4FD7F8B882D8F8140200283D
:1040E00001D0012009E02A0092B221003800FFF738
:1040F000D5FD3800FFF7E6FDC0B2BDE8F081000055
:10410000540900206C0500208401002002001220C8
:1041100008803748704702000420088035487047FF
:1041200038B504000D002000C0B2002805D12A00D7
:1041300031493248FEF78FFB04E02A002E492F4810
:10414000FEF789FB2C4832BD70B504000D002A4EE5
:104150002A0031002A48FEF77EFB300070BD38B5DA
:1041600004000D001A20288000F02AF8254832BDEE
:1041700038B504000D002000C0B2002805D12A0087
:104180001D492148FEF767FB04E02A001A491E4832
:10419000FEF761FB184832BD38B504000D00200061
:1041A000C0B2002805D12A0013491848FEF753FB76
:1041B00004E02A0010491548FEF74DFB0E4832BDB9
:1041C000F8B513480468134805681348066834199D
:1041D000002C0BD00B4F0822B91C200000F01EF859
:1041E000042217F11201280000F018F8F1BD0000B8
:1041F0004401002058010020A4100020744400084D
:104200008C4400085C010020E0440008C044000821
:10421000E8F7FF1FECF7FF1FF0F7FF1F30B4002493
:1042200000231C001500E4B2EDB2AC421BD2040026
:10423000240F0A2C07D20400240F30341D00EDB2E5
:1042400001F8154006E00400240F37341D00EDB2DC
:1042500001F81540000100241D00EDB201EB4505F9
:104260006C705B1CDDE730BC7047F0B40246106830
:1042700095681318506803EB5004C0071CD54D44D3
:104280001AE013F8017B05F8017B491EF9D198B1BA
:1042900013F8011BC6F38106032E08BF13F8016B48
:1042A00001EB06214942801C294405D011F8016B1D
:1042B00005F8016B401EF9D1A3420ED013F8016B33
:1042C00016F0030104BF13F8011BC91C30090F28A5
:1042D000DBD113F8010B0F30D7E7F0BC02F10C0073
:1042E000704700000F49086850F0010008600E4A4E
:1042F00013680E48034013600B680D4803400B60C1
:10430000086830F480200860106830F4FE00106007
:104310005FF41F00074908605FF00060064908600D
:104320007047000000100240041002400000FFF837
:10433000FFFFF6FE0810024008ED00E07047FEE7C0
:10434000FEE7FEE7FEE770477047704780B500F074
:104350001DF801BD80B50A48FCF7F6FC01BD80B52B
:104360000848FEF77AFB4FF400510748FFF74CFA74
:104370000120FFF70DFD47F6FF70FFF735FD01BD8A
:10438000180C0020F81400200010014003490A68AE
:104390000348007882180A60704700BF4415002067
:1043A00080010020000000006410B71DC8206E3B93
:1043B000AC30D9269041DC76F4516B6B5861B24D2C
:1043C0003C7105502083B8ED44930FF0E8A3D6D696
:1043D0008CB361CBB0C2649BD4D2D38678E20AA0FE
:1043E0001CF2BDBD10B5074979441831064C7C4418
:1043F000163404E00A68081D114488470146A142AA
:10440000F8D110BD080000002400000023D1FFFFF8
:10441000C813000084010020000000004FFEFFFFD1
:104420007C010000AC0100000000002000F00DF84D
:10443000002801D0FFF7D6FFAFF300800020AFF3D4
:104440000080FDF7FFFC00F002F80120704700F04B
:1044500001B800000746384600F002F8FBE700000C
:1044600080B5AFF30080024A11001820ABBEFBE715
:104470002600020053544D33322056697274756120
:104480006C20436F6D506F727400000053544D697F
:1044900063726F656C656374726F6E69637300003D
:1044A00002030405060708090A0B0C0D0E0F101075
:1044B00000000000000000000102030406070809D4
:1044C00043444320496E7465726661636500000071
:1044D0000148804701480047E5420008ED440008D4
:1044E00043444320436F6E6669670000AFF300806A
:1044F000AFF30080FFF79AFFFFF7FEBFFFF7FEBFA5
:10450000FFF7FEBFFFF7FEBFFFF7FEBFFFF7FEBFDF
:10451000FFF7FEBFFFF7FEBFFFF7FEBFFFF7FEBFCF
:10452000FFF7FEBFFFF7FEBFFFF7FEBFFFF7FEBFBF
:10453000FFF7FEBFFFF7FEBFFFF7FEBFFFF7FEBFAF
:10454000FFF7FEBFFFF7FEBFFFF7FEBFFFF7FEBF9F
:10455000FFF7FEBFFFF7FEBFFFF7FEBFFFF7FEBF8F
:10456000FFF7FEBFFFF7FEBFFFF7FEBFFFF7FEBF7F
:10457000FFF7FEBFFFF7FEBFFFF7FEBFFFF7FEBF6F
:10458000FFF7FEBFFFF7FEBFFFF7FEBFFFF7FEBF5F
:10459000FFF7FEBFFFF7FEBFFFF7FEBF13100001DE
:1045A000100524F4000A0600020B13400105100751
:1045B000553900081D3A00086F04211F131B3C0CDD
:1045C00090063B0008E33B00080001125B18125103
:1045D000042265201104100D09024300020100C0ED
:1045E000320904000001020B101E05240010010511
:1045F00024010001042402020524060001070582AB
:104600000308001009040100020A4E100207050108
:10461000027B200107058107F2280044224007227F
:104620008107200100090744F22C04441003514083
:1046300000086B04126F0412B10410030D4100084E
:104640001704124904122104125F04127104129912
:1046500004121243100602020040830440577917E7
:10466000020345F0050C040309041A030001256C3C
:02467000020145
:04000005080044EDBE
:00000001FF
